{
  "_format": "hh-sol-artifact-1",
  "contractName": "Deelance",
  "sourceName": "contracts/Deelance.sol",
  "abi": [
    {
      "anonymous": false,
      "inputs": [
        {
          "indexed": false,
          "internalType": "uint256",
          "name": "deadline",
          "type": "uint256"
        },
        {
          "indexed": false,
          "internalType": "uint256",
          "name": "value",
          "type": "uint256"
        }
      ],
      "name": "MilestoneAdded",
      "type": "event"
    },
    {
      "anonymous": false,
      "inputs": [
        {
          "indexed": false,
          "internalType": "uint256",
          "name": "id",
          "type": "uint256"
        }
      ],
      "name": "StartedProject",
      "type": "event"
    },
    {
      "inputs": [
        {
          "internalType": "uint256",
          "name": "projectId",
          "type": "uint256"
        },
        {
          "internalType": "uint256",
          "name": "deadline",
          "type": "uint256"
        },
        {
          "internalType": "bool",
          "name": "isERC",
          "type": "bool"
        },
        {
          "internalType": "address",
          "name": "_token",
          "type": "address"
        },
        {
          "internalType": "uint256",
          "name": "_amount",
          "type": "uint256"
        },
        {
          "internalType": "uint256",
          "name": "_ethAmount",
          "type": "uint256"
        }
      ],
      "name": "addMilestone",
      "outputs": [],
      "stateMutability": "payable",
      "type": "function"
    },
    {
      "inputs": [
        {
          "internalType": "address",
          "name": "bank",
          "type": "address"
        },
        {
          "internalType": "uint8",
          "name": "percentage",
          "type": "uint8"
        }
      ],
      "name": "construct",
      "outputs": [],
      "stateMutability": "nonpayable",
      "type": "function"
    },
    {
      "inputs": [],
      "name": "feeBank",
      "outputs": [
        {
          "internalType": "address payable",
          "name": "",
          "type": "address"
        }
      ],
      "stateMutability": "view",
      "type": "function"
    },
    {
      "inputs": [],
      "name": "feePercent",
      "outputs": [
        {
          "internalType": "uint8",
          "name": "",
          "type": "uint8"
        }
      ],
      "stateMutability": "view",
      "type": "function"
    },
    {
      "inputs": [
        {
          "internalType": "uint256",
          "name": "_amount",
          "type": "uint256"
        },
        {
          "internalType": "address",
          "name": "_token",
          "type": "address"
        }
      ],
      "name": "fundWithERC20",
      "outputs": [],
      "stateMutability": "nonpayable",
      "type": "function"
    },
    {
      "inputs": [
        {
          "internalType": "address",
          "name": "depositor",
          "type": "address"
        },
        {
          "internalType": "address",
          "name": "tokenAddress",
          "type": "address"
        }
      ],
      "name": "getERC20InVault",
      "outputs": [
        {
          "internalType": "uint256",
          "name": "",
          "type": "uint256"
        }
      ],
      "stateMutability": "view",
      "type": "function"
    },
    {
      "inputs": [
        {
          "internalType": "address",
          "name": "depositor",
          "type": "address"
        },
        {
          "internalType": "address",
          "name": "tokenAddress",
          "type": "address"
        }
      ],
      "name": "getERC20OutOfVault",
      "outputs": [
        {
          "internalType": "uint256",
          "name": "",
          "type": "uint256"
        }
      ],
      "stateMutability": "view",
      "type": "function"
    },
    {
      "inputs": [
        {
          "internalType": "address",
          "name": "depositor",
          "type": "address"
        }
      ],
      "name": "getEthInVault",
      "outputs": [
        {
          "internalType": "uint256",
          "name": "",
          "type": "uint256"
        }
      ],
      "stateMutability": "view",
      "type": "function"
    },
    {
      "inputs": [
        {
          "internalType": "address",
          "name": "depositor",
          "type": "address"
        }
      ],
      "name": "getEthOutOfVault",
      "outputs": [
        {
          "internalType": "uint256",
          "name": "",
          "type": "uint256"
        }
      ],
      "stateMutability": "view",
      "type": "function"
    },
    {
      "inputs": [
        {
          "internalType": "uint256",
          "name": "projectId",
          "type": "uint256"
        }
      ],
      "name": "getMilestones",
      "outputs": [
        {
          "components": [
            {
              "internalType": "uint256",
              "name": "deadline",
              "type": "uint256"
            },
            {
              "internalType": "uint256",
              "name": "payment",
              "type": "uint256"
            },
            {
              "internalType": "bool",
              "name": "isERC",
              "type": "bool"
            },
            {
              "internalType": "address",
              "name": "token",
              "type": "address"
            },
            {
              "internalType": "bool",
              "name": "completed",
              "type": "bool"
            }
          ],
          "internalType": "struct Deelance.Milestone[]",
          "name": "milestone",
          "type": "tuple[]"
        }
      ],
      "stateMutability": "view",
      "type": "function"
    },
    {
      "inputs": [
        {
          "internalType": "uint256",
          "name": "projectId",
          "type": "uint256"
        }
      ],
      "name": "joinProject",
      "outputs": [],
      "stateMutability": "nonpayable",
      "type": "function"
    },
    {
      "inputs": [
        {
          "internalType": "uint256",
          "name": "projectId",
          "type": "uint256"
        },
        {
          "internalType": "uint8",
          "name": "milestoneId",
          "type": "uint8"
        }
      ],
      "name": "milestoneCompleted",
      "outputs": [],
      "stateMutability": "nonpayable",
      "type": "function"
    },
    {
      "inputs": [
        {
          "internalType": "uint256",
          "name": "",
          "type": "uint256"
        }
      ],
      "name": "projects",
      "outputs": [
        {
          "internalType": "address payable",
          "name": "client",
          "type": "address"
        },
        {
          "internalType": "address payable",
          "name": "freelancer",
          "type": "address"
        },
        {
          "internalType": "uint256",
          "name": "budget",
          "type": "uint256"
        },
        {
          "internalType": "uint8",
          "name": "completedMilestones",
          "type": "uint8"
        },
        {
          "internalType": "bool",
          "name": "completed",
          "type": "bool"
        },
        {
          "internalType": "bool",
          "name": "approved",
          "type": "bool"
        }
      ],
      "stateMutability": "view",
      "type": "function"
    },
    {
      "inputs": [],
      "name": "projectsId",
      "outputs": [
        {
          "internalType": "uint256",
          "name": "",
          "type": "uint256"
        }
      ],
      "stateMutability": "view",
      "type": "function"
    },
    {
      "inputs": [],
      "name": "registerClient",
      "outputs": [],
      "stateMutability": "nonpayable",
      "type": "function"
    },
    {
      "inputs": [],
      "name": "registerFreelancer",
      "outputs": [],
      "stateMutability": "nonpayable",
      "type": "function"
    },
    {
      "inputs": [
        {
          "internalType": "address",
          "name": "freelancerAddress",
          "type": "address"
        }
      ],
      "name": "startProject",
      "outputs": [],
      "stateMutability": "nonpayable",
      "type": "function"
    },
    {
      "inputs": [
        {
          "internalType": "address",
          "name": "",
          "type": "address"
        }
      ],
      "name": "users",
      "outputs": [
        {
          "internalType": "uint256",
          "name": "userId",
          "type": "uint256"
        },
        {
          "internalType": "bool",
          "name": "isClient",
          "type": "bool"
        },
        {
          "internalType": "bool",
          "name": "isFreelancer",
          "type": "bool"
        },
        {
          "internalType": "uint256",
          "name": "ethInVault",
          "type": "uint256"
        },
        {
          "internalType": "uint256",
          "name": "ethOutOfVault",
          "type": "uint256"
        }
      ],
      "stateMutability": "view",
      "type": "function"
    },
    {
      "inputs": [],
      "name": "usersId",
      "outputs": [
        {
          "internalType": "uint256",
          "name": "",
          "type": "uint256"
        }
      ],
      "stateMutability": "view",
      "type": "function"
    },
    {
      "stateMutability": "payable",
      "type": "receive"
    }
  ],
  "bytecode": "0x608060405234801561001057600080fd5b50612e19806100206000396000f3fe6080604052600436106101185760003560e01c80637fd6f15c116100a0578063be0f431e11610064578063be0f431e14610417578063d81b423a14610440578063df98e5f914610469578063e22cf44714610492578063e6790928146104cf5761017e565b80637fd6f15c1461031a578063851266fa14610345578063a87430ba1461036e578063af15d786146103af578063b61ead0d146103da5761017e565b80633f594a0d116100e75780633f594a0d1461024757806342c549c0146102845780636198f297146102c15780636d9fb287146102ec5780637721710e146103035761017e565b806301af34ff14610183578063107046bd1461019f5780631aca41f9146101e1578063254de6bb1461020a5761017e565b3661017e576000600160003373ffffffffffffffffffffffffffffffffffffffff1673ffffffffffffffffffffffffffffffffffffffff1681526020019081526020016000209050348160020160008282546101749190611e58565b9250508190555050005b600080fd5b61019d60048036038101906101989190611f75565b6104fa565b005b3480156101ab57600080fd5b506101c660048036038101906101c19190612002565b610b12565b6040516101d89695949392919061208a565b60405180910390f35b3480156101ed57600080fd5b50610208600480360381019061020391906120eb565b610bb5565b005b34801561021657600080fd5b50610231600480360381019061022c9190612118565b610e48565b60405161023e9190612158565b60405180910390f35b34801561025357600080fd5b5061026e600480360381019061026991906120eb565b610ed2565b60405161027b9190612158565b60405180910390f35b34801561029057600080fd5b506102ab60048036038101906102a69190612002565b610f1e565b6040516102b891906122b7565b60405180910390f35b3480156102cd57600080fd5b506102d6611033565b6040516102e39190612158565b60405180910390f35b3480156102f857600080fd5b50610301611039565b005b34801561030f57600080fd5b5061031861117e565b005b34801561032657600080fd5b5061032f6112c3565b60405161033c91906122d9565b60405180910390f35b34801561035157600080fd5b5061036c60048036038101906103679190612320565b6112d6565b005b34801561037a57600080fd5b50610395600480360381019061039091906120eb565b6117dc565b6040516103a6959493929190612360565b60405180910390f35b3480156103bb57600080fd5b506103c461182c565b6040516103d191906123b3565b60405180910390f35b3480156103e657600080fd5b5061040160048036038101906103fc91906120eb565b611852565b60405161040e9190612158565b60405180910390f35b34801561042357600080fd5b5061043e600480360381019061043991906123ce565b61189e565b005b34801561044c57600080fd5b506104676004803603810190610462919061240e565b611bca565b005b34801561047557600080fd5b50610490600480360381019061048b9190612002565b611c2a565b005b34801561049e57600080fd5b506104b960048036038101906104b49190612118565b611d8f565b6040516104c69190612158565b60405180910390f35b3480156104db57600080fd5b506104e4611e19565b6040516104f19190612158565b60405180910390f35b3373ffffffffffffffffffffffffffffffffffffffff166004600088815260200190815260200160002060000160009054906101000a900473ffffffffffffffffffffffffffffffffffffffff1673ffffffffffffffffffffffffffffffffffffffff161461059e576040517f08c379a0000000000000000000000000000000000000000000000000000000008152600401610595906124d1565b60405180910390fd5b836107fd5780600160003373ffffffffffffffffffffffffffffffffffffffff1673ffffffffffffffffffffffffffffffffffffffff168152602001908152602001600020600201541015610628576040517f08c379a000000000000000000000000000000000000000000000000000000000815260040161061f9061253d565b60405180910390fd5b600460008781526020019081526020016000206003016040518060a0016040528087815260200183815260200186151581526020018573ffffffffffffffffffffffffffffffffffffffff168152602001600015158152509080600181540180825580915050600190039060005260206000209060030201600090919091909150600082015181600001556020820151816001015560408201518160020160006101000a81548160ff02191690831515021790555060608201518160020160016101000a81548173ffffffffffffffffffffffffffffffffffffffff021916908373ffffffffffffffffffffffffffffffffffffffff16021790555060808201518160020160156101000a81548160ff021916908315150217905550505080600160003373ffffffffffffffffffffffffffffffffffffffff1673ffffffffffffffffffffffffffffffffffffffff1681526020019081526020016000206002016000828254610798919061255d565b9250508190555080600160003373ffffffffffffffffffffffffffffffffffffffff1673ffffffffffffffffffffffffffffffffffffffff16815260200190815260200160002060030160008282546107f19190611e58565b92505081905550610b0a565b81600160003373ffffffffffffffffffffffffffffffffffffffff1673ffffffffffffffffffffffffffffffffffffffff16815260200190815260200160002060040160008573ffffffffffffffffffffffffffffffffffffffff1673ffffffffffffffffffffffffffffffffffffffff1681526020019081526020016000205410156108bf576040517f08c379a00000000000000000000000000000000000000000000000000000000081526004016108b6906125dd565b60405180910390fd5b600460008781526020019081526020016000206003016040518060a0016040528087815260200184815260200186151581526020018573ffffffffffffffffffffffffffffffffffffffff168152602001600015158152509080600181540180825580915050600190039060005260206000209060030201600090919091909150600082015181600001556020820151816001015560408201518160020160006101000a81548160ff02191690831515021790555060608201518160020160016101000a81548173ffffffffffffffffffffffffffffffffffffffff021916908373ffffffffffffffffffffffffffffffffffffffff16021790555060808201518160020160156101000a81548160ff021916908315150217905550505081600160003373ffffffffffffffffffffffffffffffffffffffff1673ffffffffffffffffffffffffffffffffffffffff16815260200190815260200160002060040160008573ffffffffffffffffffffffffffffffffffffffff1673ffffffffffffffffffffffffffffffffffffffff1681526020019081526020016000206000828254610a6c919061255d565b9250508190555081600160003373ffffffffffffffffffffffffffffffffffffffff1673ffffffffffffffffffffffffffffffffffffffff16815260200190815260200160002060050160008573ffffffffffffffffffffffffffffffffffffffff1673ffffffffffffffffffffffffffffffffffffffff1681526020019081526020016000206000828254610b029190611e58565b925050819055505b505050505050565b60046020528060005260406000206000915090508060000160009054906101000a900473ffffffffffffffffffffffffffffffffffffffff16908060010160009054906101000a900473ffffffffffffffffffffffffffffffffffffffff16908060020154908060040160009054906101000a900460ff16908060040160019054906101000a900460ff16908060040160029054906101000a900460ff16905086565b8073ffffffffffffffffffffffffffffffffffffffff163373ffffffffffffffffffffffffffffffffffffffff161415610c24576040517f08c379a0000000000000000000000000000000000000000000000000000000008152600401610c1b90612649565b60405180910390fd5b600160003373ffffffffffffffffffffffffffffffffffffffff1673ffffffffffffffffffffffffffffffffffffffff16815260200190815260200160002060010160009054906101000a900460ff16610c8157610c80611039565b5b600160008273ffffffffffffffffffffffffffffffffffffffff1673ffffffffffffffffffffffffffffffffffffffff16815260200190815260200160002060010160019054906101000a900460ff16610d10576040517f08c379a0000000000000000000000000000000000000000000000000000000008152600401610d07906126b5565b60405180910390fd5b60036000815480929190610d23906126d5565b919050555060006004600060035481526020019081526020016000209050338160000160006101000a81548173ffffffffffffffffffffffffffffffffffffffff021916908373ffffffffffffffffffffffffffffffffffffffff160217905550818160010160006101000a81548173ffffffffffffffffffffffffffffffffffffffff021916908373ffffffffffffffffffffffffffffffffffffffff1602179055506000816002018190555060008160040160016101000a81548160ff02191690831515021790555060008160040160026101000a81548160ff0219169083151502179055507f8ad03fb395e9fb495b6c2ed1ee55846aaf848231e0f986d4a32ddcf0bb5bd180600354604051610e3c9190612158565b60405180910390a15050565b6000600160008473ffffffffffffffffffffffffffffffffffffffff1673ffffffffffffffffffffffffffffffffffffffff16815260200190815260200160002060040160008373ffffffffffffffffffffffffffffffffffffffff1673ffffffffffffffffffffffffffffffffffffffff16815260200190815260200160002054905092915050565b6000600160008373ffffffffffffffffffffffffffffffffffffffff1673ffffffffffffffffffffffffffffffffffffffff168152602001908152602001600020600301549050919050565b606060046000838152602001908152602001600020600301805480602002602001604051908101604052809291908181526020016000905b8282101561102857838290600052602060002090600302016040518060a001604052908160008201548152602001600182015481526020016002820160009054906101000a900460ff161515151581526020016002820160019054906101000a900473ffffffffffffffffffffffffffffffffffffffff1673ffffffffffffffffffffffffffffffffffffffff1673ffffffffffffffffffffffffffffffffffffffff1681526020016002820160159054906101000a900460ff16151515158152505081526020019060010190610f56565b505050509050919050565b60035481565b600160003373ffffffffffffffffffffffffffffffffffffffff1673ffffffffffffffffffffffffffffffffffffffff16815260200190815260200160002060010160009054906101000a900460ff16156110c9576040517f08c379a00000000000000000000000000000000000000000000000000000000081526004016110c090612790565b60405180910390fd5b6000600160003373ffffffffffffffffffffffffffffffffffffffff1673ffffffffffffffffffffffffffffffffffffffff1681526020019081526020016000209050600081600001541461113b5760018160010160006101000a81548160ff0219169083151502179055505061117c565b60008081548092919061114d906126d5565b9190505550600054816000018190555060018160010160006101000a81548160ff021916908315150217905550505b565b600160003373ffffffffffffffffffffffffffffffffffffffff1673ffffffffffffffffffffffffffffffffffffffff16815260200190815260200160002060010160019054906101000a900460ff161561120e576040517f08c379a000000000000000000000000000000000000000000000000000000000815260040161120590612822565b60405180910390fd5b6000600160003373ffffffffffffffffffffffffffffffffffffffff1673ffffffffffffffffffffffffffffffffffffffff168152602001908152602001600020905060008160000154146112805760018160010160016101000a81548160ff021916908315150217905550506112c1565b600080815480929190611292906126d5565b9190505550600054816000018190555060018160010160016101000a81548160ff021916908315150217905550505b565b600260149054906101000a900460ff1681565b3373ffffffffffffffffffffffffffffffffffffffff166004600084815260200190815260200160002060000160009054906101000a900473ffffffffffffffffffffffffffffffffffffffff1673ffffffffffffffffffffffffffffffffffffffff161461137a576040517f08c379a0000000000000000000000000000000000000000000000000000000008152600401611371906128b4565b60405180910390fd5b6004600083815260200190815260200160002060040160019054906101000a900460ff16156113de576040517f08c379a00000000000000000000000000000000000000000000000000000000081526004016113d590612920565b60405180910390fd5b600060046000848152602001908152602001600020905080600301805490508260ff1610611441576040517f08c379a00000000000000000000000000000000000000000000000000000000081526004016114389061298c565b60405180910390fd5b6000816003018360ff168154811061145c5761145b6129ac565b5b906000526020600020906003020190508060020160159054906101000a900460ff16156114be576040517f08c379a00000000000000000000000000000000000000000000000000000000081526004016114b590612a4d565b60405180910390fd5b8060020160009054906101000a900460ff166115a5578160010160009054906101000a900473ffffffffffffffffffffffffffffffffffffffff1673ffffffffffffffffffffffffffffffffffffffff166108fc82600101549081150290604051600060405180830381858888f19350505050158015611542573d6000803e3d6000fd5b508060010154600160003373ffffffffffffffffffffffffffffffffffffffff1673ffffffffffffffffffffffffffffffffffffffff1681526020019081526020016000206003016000828254611599919061255d565b9250508190555061173e565b8060020160019054906101000a900473ffffffffffffffffffffffffffffffffffffffff1673ffffffffffffffffffffffffffffffffffffffff1663a9059cbb8360010160009054906101000a900473ffffffffffffffffffffffffffffffffffffffff1683600101546040518363ffffffff1660e01b815260040161162c929190612acc565b602060405180830381600087803b15801561164657600080fd5b505af115801561165a573d6000803e3d6000fd5b505050506040513d601f19601f8201168201806040525081019061167e9190612b0a565b508060010154600160003373ffffffffffffffffffffffffffffffffffffffff1673ffffffffffffffffffffffffffffffffffffffff16815260200190815260200160002060050160008360020160019054906101000a900473ffffffffffffffffffffffffffffffffffffffff1673ffffffffffffffffffffffffffffffffffffffff1673ffffffffffffffffffffffffffffffffffffffff1681526020019081526020016000206000828254611736919061255d565b925050819055505b60018160020160156101000a81548160ff02191690831515021790555081600401600081819054906101000a900460ff168092919061177c90612b37565b91906101000a81548160ff021916908360ff1602179055505081600301805490508260040160009054906101000a900460ff1660ff1614156117d65760018260040160016101000a81548160ff0219169083151502179055505b50505050565b60016020528060005260406000206000915090508060000154908060010160009054906101000a900460ff16908060010160019054906101000a900460ff16908060020154908060030154905085565b600260009054906101000a900473ffffffffffffffffffffffffffffffffffffffff1681565b6000600160008373ffffffffffffffffffffffffffffffffffffffff1673ffffffffffffffffffffffffffffffffffffffff168152602001908152602001600020600201549050919050565b6000819050828173ffffffffffffffffffffffffffffffffffffffff1663dd62ed3e33306040518363ffffffff1660e01b81526004016118df929190612b70565b60206040518083038186803b1580156118f757600080fd5b505afa15801561190b573d6000803e3d6000fd5b505050506040513d601f19601f8201168201806040525081019061192f9190612bae565b1015611970576040517f08c379a000000000000000000000000000000000000000000000000000000000815260040161196790612c4d565b60405180910390fd5b60008173ffffffffffffffffffffffffffffffffffffffff166370a08231306040518263ffffffff1660e01b81526004016119ab9190612c6d565b60206040518083038186803b1580156119c357600080fd5b505afa1580156119d7573d6000803e3d6000fd5b505050506040513d601f19601f820116820180604052508101906119fb9190612bae565b90508173ffffffffffffffffffffffffffffffffffffffff166323b872dd3330876040518463ffffffff1660e01b8152600401611a3a93929190612c88565b602060405180830381600087803b158015611a5457600080fd5b505af1158015611a68573d6000803e3d6000fd5b505050506040513d601f19601f82011682018060405250810190611a8c9190612b0a565b5083818373ffffffffffffffffffffffffffffffffffffffff166370a08231306040518263ffffffff1660e01b8152600401611ac89190612c6d565b60206040518083038186803b158015611ae057600080fd5b505afa158015611af4573d6000803e3d6000fd5b505050506040513d601f19601f82011682018060405250810190611b189190612bae565b611b22919061255d565b10611bc4576000600160003373ffffffffffffffffffffffffffffffffffffffff1673ffffffffffffffffffffffffffffffffffffffff1681526020019081526020016000209050848160040160008673ffffffffffffffffffffffffffffffffffffffff1673ffffffffffffffffffffffffffffffffffffffff1681526020019081526020016000206000828254611bbb9190611e58565b92505081905550505b50505050565b81600260006101000a81548173ffffffffffffffffffffffffffffffffffffffff021916908373ffffffffffffffffffffffffffffffffffffffff16021790555080600260146101000a81548160ff021916908360ff1602179055505050565b600160003373ffffffffffffffffffffffffffffffffffffffff1673ffffffffffffffffffffffffffffffffffffffff16815260200190815260200160002060010160019054906101000a900460ff16611cb9576040517f08c379a0000000000000000000000000000000000000000000000000000000008152600401611cb090612d31565b60405180910390fd5b3373ffffffffffffffffffffffffffffffffffffffff166004600083815260200190815260200160002060010160009054906101000a900473ffffffffffffffffffffffffffffffffffffffff1673ffffffffffffffffffffffffffffffffffffffff1614611d5d576040517f08c379a0000000000000000000000000000000000000000000000000000000008152600401611d5490612dc3565b60405180910390fd5b60016004600083815260200190815260200160002060040160026101000a81548160ff02191690831515021790555050565b6000600160008473ffffffffffffffffffffffffffffffffffffffff1673ffffffffffffffffffffffffffffffffffffffff16815260200190815260200160002060050160008373ffffffffffffffffffffffffffffffffffffffff1673ffffffffffffffffffffffffffffffffffffffff16815260200190815260200160002054905092915050565b60005481565b6000819050919050565b7f4e487b7100000000000000000000000000000000000000000000000000000000600052601160045260246000fd5b6000611e6382611e1f565b9150611e6e83611e1f565b9250827fffffffffffffffffffffffffffffffffffffffffffffffffffffffffffffffff03821115611ea357611ea2611e29565b5b828201905092915050565b600080fd5b611ebc81611e1f565b8114611ec757600080fd5b50565b600081359050611ed981611eb3565b92915050565b60008115159050919050565b611ef481611edf565b8114611eff57600080fd5b50565b600081359050611f1181611eeb565b92915050565b600073ffffffffffffffffffffffffffffffffffffffff82169050919050565b6000611f4282611f17565b9050919050565b611f5281611f37565b8114611f5d57600080fd5b50565b600081359050611f6f81611f49565b92915050565b60008060008060008060c08789031215611f9257611f91611eae565b5b6000611fa089828a01611eca565b9650506020611fb189828a01611eca565b9550506040611fc289828a01611f02565b9450506060611fd389828a01611f60565b9350506080611fe489828a01611eca565b92505060a0611ff589828a01611eca565b9150509295509295509295565b60006020828403121561201857612017611eae565b5b600061202684828501611eca565b91505092915050565b600061203a82611f17565b9050919050565b61204a8161202f565b82525050565b61205981611e1f565b82525050565b600060ff82169050919050565b6120758161205f565b82525050565b61208481611edf565b82525050565b600060c08201905061209f6000830189612041565b6120ac6020830188612041565b6120b96040830187612050565b6120c6606083018661206c565b6120d3608083018561207b565b6120e060a083018461207b565b979650505050505050565b60006020828403121561210157612100611eae565b5b600061210f84828501611f60565b91505092915050565b6000806040838503121561212f5761212e611eae565b5b600061213d85828601611f60565b925050602061214e85828601611f60565b9150509250929050565b600060208201905061216d6000830184612050565b92915050565b600081519050919050565b600082825260208201905092915050565b6000819050602082019050919050565b6121a881611e1f565b82525050565b6121b781611edf565b82525050565b6121c681611f37565b82525050565b60a0820160008201516121e2600085018261219f565b5060208201516121f5602085018261219f565b50604082015161220860408501826121ae565b50606082015161221b60608501826121bd565b50608082015161222e60808501826121ae565b50505050565b600061224083836121cc565b60a08301905092915050565b6000602082019050919050565b600061226482612173565b61226e818561217e565b93506122798361218f565b8060005b838110156122aa5781516122918882612234565b975061229c8361224c565b92505060018101905061227d565b5085935050505092915050565b600060208201905081810360008301526122d18184612259565b905092915050565b60006020820190506122ee600083018461206c565b92915050565b6122fd8161205f565b811461230857600080fd5b50565b60008135905061231a816122f4565b92915050565b6000806040838503121561233757612336611eae565b5b600061234585828601611eca565b92505060206123568582860161230b565b9150509250929050565b600060a0820190506123756000830188612050565b612382602083018761207b565b61238f604083018661207b565b61239c6060830185612050565b6123a96080830184612050565b9695505050505050565b60006020820190506123c86000830184612041565b92915050565b600080604083850312156123e5576123e4611eae565b5b60006123f385828601611eca565b925050602061240485828601611f60565b9150509250929050565b6000806040838503121561242557612424611eae565b5b600061243385828601611f60565b92505060206124448582860161230b565b9150509250929050565b600082825260208201905092915050565b7f596f7520617265206e6f7420746865206f776e6572206f66207468697320707260008201527f6f6a656374000000000000000000000000000000000000000000000000000000602082015250565b60006124bb60258361244e565b91506124c68261245f565b604082019050919050565b600060208201905081810360008301526124ea816124ae565b9050919050565b7f6e6f7420656e6f7567682065746820696e207661756c74000000000000000000600082015250565b600061252760178361244e565b9150612532826124f1565b602082019050919050565b600060208201905081810360008301526125568161251a565b9050919050565b600061256882611e1f565b915061257383611e1f565b92508282101561258657612585611e29565b5b828203905092915050565b7f6e6f7420656e6f75676820657263323020746f6b656e20696e207661756c7400600082015250565b60006125c7601f8361244e565b91506125d282612591565b602082019050919050565b600060208201905081810360008301526125f6816125ba565b9050919050565b7f596f752063616e6e6f7420776f726b20666f7220796f757273656c6600000000600082015250565b6000612633601c8361244e565b915061263e826125fd565b602082019050919050565b6000602082019050818103600083015261266281612626565b9050919050565b7f5468697320667265656c616e63657220646f6573206e6f742065786973740000600082015250565b600061269f601e8361244e565b91506126aa82612669565b602082019050919050565b600060208201905081810360008301526126ce81612692565b9050919050565b60006126e082611e1f565b91507fffffffffffffffffffffffffffffffffffffffffffffffffffffffffffffffff82141561271357612712611e29565b5b600182019050919050565b7f546869732061646472657373206973207265676973746572656420617320612060008201527f636c69656e740000000000000000000000000000000000000000000000000000602082015250565b600061277a60268361244e565b91506127858261271e565b604082019050919050565b600060208201905081810360008301526127a98161276d565b9050919050565b7f546869732061646472657373206973207265676973746572656420617320612060008201527f667265656c616e63657200000000000000000000000000000000000000000000602082015250565b600061280c602a8361244e565b9150612817826127b0565b604082019050919050565b6000602082019050818103600083015261283b816127ff565b9050919050565b7f4f6e6c79207468652070726f6a656374206f776e65722063616e2063616c6c2060008201527f746869732066756e6374696f6e00000000000000000000000000000000000000602082015250565b600061289e602d8361244e565b91506128a982612842565b604082019050919050565b600060208201905081810360008301526128cd81612891565b9050919050565b7f546869732070726f6a65637420686173206265656e20636f6d706c6574656400600082015250565b600061290a601f8361244e565b9150612915826128d4565b602082019050919050565b60006020820190508181036000830152612939816128fd565b9050919050565b7f54686973206d696c6573746f6e6520646f6573206e6f74206578697374000000600082015250565b6000612976601d8361244e565b915061298182612940565b602082019050919050565b600060208201905081810360008301526129a581612969565b9050919050565b7f4e487b7100000000000000000000000000000000000000000000000000000000600052603260045260246000fd5b7f54686973206d696c6573746f6e6520686173206265656e206d61726b6564206160008201527f7320636f6d706c65746564000000000000000000000000000000000000000000602082015250565b6000612a37602b8361244e565b9150612a42826129db565b604082019050919050565b60006020820190508181036000830152612a6681612a2a565b9050919050565b6000819050919050565b6000612a92612a8d612a8884611f17565b612a6d565b611f17565b9050919050565b6000612aa482612a77565b9050919050565b6000612ab682612a99565b9050919050565b612ac681612aab565b82525050565b6000604082019050612ae16000830185612abd565b612aee6020830184612050565b9392505050565b600081519050612b0481611eeb565b92915050565b600060208284031215612b2057612b1f611eae565b5b6000612b2e84828501612af5565b91505092915050565b6000612b428261205f565b915060ff821415612b5657612b55611e29565b5b600182019050919050565b612b6a81611f37565b82525050565b6000604082019050612b856000830185612b61565b612b926020830184612b61565b9392505050565b600081519050612ba881611eb3565b92915050565b600060208284031215612bc457612bc3611eae565b5b6000612bd284828501612b99565b91505092915050565b7f5468657265206973206e6f20616d6f756e7420617070726f76656420746f207360008201527f70656e6400000000000000000000000000000000000000000000000000000000602082015250565b6000612c3760248361244e565b9150612c4282612bdb565b604082019050919050565b60006020820190508181036000830152612c6681612c2a565b9050919050565b6000602082019050612c826000830184612b61565b92915050565b6000606082019050612c9d6000830186612b61565b612caa6020830185612b61565b612cb76040830184612050565b949350505050565b7f596f7520617265206e6f7420726567697374657265642061732061206672656560008201527f6c616e6365720000000000000000000000000000000000000000000000000000602082015250565b6000612d1b60268361244e565b9150612d2682612cbf565b604082019050919050565b60006020820190508181036000830152612d4a81612d0e565b9050919050565b7f596f7520617265206e6f742074686520667265656c616e63657220666f72207460008201527f6869732070726f6a656374000000000000000000000000000000000000000000602082015250565b6000612dad602b8361244e565b9150612db882612d51565b604082019050919050565b60006020820190508181036000830152612ddc81612da0565b905091905056fea26469706673582212202f0b0e96d6649465cf02409cea7073afb935280794f965b18d6cd9cf21d7a44b64736f6c63430008090033",
  "linkReferences": {},
  "deployedLinkReferences": {}
}