{
  "_format": "hh-sol-artifact-1",
  "contractName": "Deelance",
  "sourceName": "contracts/Deelance.sol",
  "abi": [
    {
      "anonymous": false,
      "inputs": [
        {
          "indexed": false,
          "internalType": "uint256",
          "name": "deadline",
          "type": "uint256"
        },
        {
          "indexed": false,
          "internalType": "uint256",
          "name": "value",
          "type": "uint256"
        }
      ],
      "name": "MilestoneAdded",
      "type": "event"
    },
    {
      "anonymous": false,
      "inputs": [
        {
          "indexed": false,
          "internalType": "uint256",
          "name": "id",
          "type": "uint256"
        }
      ],
      "name": "StartedProject",
      "type": "event"
    },
    {
      "inputs": [
        {
          "internalType": "uint256",
          "name": "projectId",
          "type": "uint256"
        },
        {
          "internalType": "uint256",
          "name": "deadline",
          "type": "uint256"
        },
        {
          "internalType": "bool",
          "name": "isERC",
          "type": "bool"
        },
        {
          "internalType": "address",
          "name": "_token",
          "type": "address"
        },
        {
          "internalType": "uint256",
          "name": "_amount",
          "type": "uint256"
        },
        {
          "internalType": "uint256",
          "name": "_ethAmount",
          "type": "uint256"
        }
      ],
      "name": "addMilestone",
      "outputs": [],
      "stateMutability": "payable",
      "type": "function"
    },
    {
      "inputs": [
        {
          "internalType": "address",
          "name": "bank",
          "type": "address"
        },
        {
          "internalType": "uint8",
          "name": "percentage",
          "type": "uint8"
        }
      ],
      "name": "construct",
      "outputs": [],
      "stateMutability": "nonpayable",
      "type": "function"
    },
    {
      "inputs": [],
      "name": "feeBank",
      "outputs": [
        {
          "internalType": "address payable",
          "name": "",
          "type": "address"
        }
      ],
      "stateMutability": "view",
      "type": "function"
    },
    {
      "inputs": [],
      "name": "feePercent",
      "outputs": [
        {
          "internalType": "uint8",
          "name": "",
          "type": "uint8"
        }
      ],
      "stateMutability": "view",
      "type": "function"
    },
    {
      "inputs": [
        {
          "internalType": "uint256",
          "name": "_amount",
          "type": "uint256"
        },
        {
          "internalType": "address",
          "name": "_token",
          "type": "address"
        }
      ],
      "name": "fundWithERC20",
      "outputs": [],
      "stateMutability": "nonpayable",
      "type": "function"
    },
    {
      "inputs": [
        {
          "internalType": "uint256",
          "name": "projectId",
          "type": "uint256"
        }
      ],
      "name": "joinProject",
      "outputs": [],
      "stateMutability": "nonpayable",
      "type": "function"
    },
    {
      "inputs": [
        {
          "internalType": "uint256",
          "name": "projectId",
          "type": "uint256"
        },
        {
          "internalType": "uint8",
          "name": "milestoneId",
          "type": "uint8"
        }
      ],
      "name": "milestoneCompleted",
      "outputs": [],
      "stateMutability": "nonpayable",
      "type": "function"
    },
    {
      "inputs": [
        {
          "internalType": "uint256",
          "name": "",
          "type": "uint256"
        }
      ],
      "name": "projects",
      "outputs": [
        {
          "internalType": "address payable",
          "name": "client",
          "type": "address"
        },
        {
          "internalType": "address payable",
          "name": "freelancer",
          "type": "address"
        },
        {
          "internalType": "uint256",
          "name": "budget",
          "type": "uint256"
        },
        {
          "internalType": "uint8",
          "name": "completedMilestones",
          "type": "uint8"
        },
        {
          "internalType": "bool",
          "name": "completed",
          "type": "bool"
        },
        {
          "internalType": "bool",
          "name": "approved",
          "type": "bool"
        }
      ],
      "stateMutability": "view",
      "type": "function"
    },
    {
      "inputs": [],
      "name": "projectsId",
      "outputs": [
        {
          "internalType": "uint256",
          "name": "",
          "type": "uint256"
        }
      ],
      "stateMutability": "view",
      "type": "function"
    },
    {
      "inputs": [],
      "name": "registerClient",
      "outputs": [],
      "stateMutability": "nonpayable",
      "type": "function"
    },
    {
      "inputs": [],
      "name": "registerFreelancer",
      "outputs": [],
      "stateMutability": "nonpayable",
      "type": "function"
    },
    {
      "inputs": [
        {
          "internalType": "address",
          "name": "freelancerAddress",
          "type": "address"
        }
      ],
      "name": "startProject",
      "outputs": [],
      "stateMutability": "nonpayable",
      "type": "function"
    },
    {
      "inputs": [
        {
          "internalType": "address",
          "name": "",
          "type": "address"
        }
      ],
      "name": "users",
      "outputs": [
        {
          "internalType": "uint256",
          "name": "userId",
          "type": "uint256"
        },
        {
          "internalType": "bool",
          "name": "isClient",
          "type": "bool"
        },
        {
          "internalType": "bool",
          "name": "isFreelancer",
          "type": "bool"
        },
        {
          "internalType": "uint256",
          "name": "ethInVault",
          "type": "uint256"
        },
        {
          "internalType": "uint256",
          "name": "ethOutOfVault",
          "type": "uint256"
        }
      ],
      "stateMutability": "view",
      "type": "function"
    },
    {
      "inputs": [],
      "name": "usersId",
      "outputs": [
        {
          "internalType": "uint256",
          "name": "",
          "type": "uint256"
        }
      ],
      "stateMutability": "view",
      "type": "function"
    },
    {
      "stateMutability": "payable",
      "type": "receive"
    }
  ],
  "bytecode": "0x608060405234801561001057600080fd5b5061285a806100206000396000f3fe6080604052600436106100e15760003560e01c8063851266fa1161007f578063be0f431e11610059578063be0f431e146102ec578063d81b423a14610315578063df98e5f91461033e578063e67909281461036757610147565b8063851266fa14610257578063a87430ba14610280578063af15d786146102c157610147565b80636198f297116100bb5780636198f297146101d35780636d9fb287146101fe5780637721710e146102155780637fd6f15c1461022c57610147565b806301af34ff1461014c578063107046bd146101685780631aca41f9146101aa57610147565b36610147576000600160003373ffffffffffffffffffffffffffffffffffffffff1673ffffffffffffffffffffffffffffffffffffffff16815260200190815260200160002090503481600201600082825461013d9190611a31565b9250508190555050005b600080fd5b61016660048036038101906101619190611b4e565b610392565b005b34801561017457600080fd5b5061018f600480360381019061018a9190611bdb565b6109aa565b6040516101a196959493929190611c63565b60405180910390f35b3480156101b657600080fd5b506101d160048036038101906101cc9190611cc4565b610a4d565b005b3480156101df57600080fd5b506101e8610ce0565b6040516101f59190611cf1565b60405180910390f35b34801561020a57600080fd5b50610213610ce6565b005b34801561022157600080fd5b5061022a610e2b565b005b34801561023857600080fd5b50610241610f70565b60405161024e9190611d0c565b60405180910390f35b34801561026357600080fd5b5061027e60048036038101906102799190611d53565b610f83565b005b34801561028c57600080fd5b506102a760048036038101906102a29190611cc4565b61148b565b6040516102b8959493929190611d93565b60405180910390f35b3480156102cd57600080fd5b506102d66114db565b6040516102e39190611de6565b60405180910390f35b3480156102f857600080fd5b50610313600480360381019061030e9190611e01565b611501565b005b34801561032157600080fd5b5061033c60048036038101906103379190611e41565b61182d565b005b34801561034a57600080fd5b5061036560048036038101906103609190611bdb565b61188d565b005b34801561037357600080fd5b5061037c6119f2565b6040516103899190611cf1565b60405180910390f35b3373ffffffffffffffffffffffffffffffffffffffff166004600088815260200190815260200160002060000160009054906101000a900473ffffffffffffffffffffffffffffffffffffffff1673ffffffffffffffffffffffffffffffffffffffff1614610436576040517f08c379a000000000000000000000000000000000000000000000000000000000815260040161042d90611f04565b60405180910390fd5b836106955780600160003373ffffffffffffffffffffffffffffffffffffffff1673ffffffffffffffffffffffffffffffffffffffff1681526020019081526020016000206002015410156104c0576040517f08c379a00000000000000000000000000000000000000000000000000000000081526004016104b790611f70565b60405180910390fd5b600460008781526020019081526020016000206003016040518060a0016040528087815260200183815260200186151581526020018573ffffffffffffffffffffffffffffffffffffffff168152602001600015158152509080600181540180825580915050600190039060005260206000209060030201600090919091909150600082015181600001556020820151816001015560408201518160020160006101000a81548160ff02191690831515021790555060608201518160020160016101000a81548173ffffffffffffffffffffffffffffffffffffffff021916908373ffffffffffffffffffffffffffffffffffffffff16021790555060808201518160020160156101000a81548160ff021916908315150217905550505080600160003373ffffffffffffffffffffffffffffffffffffffff1673ffffffffffffffffffffffffffffffffffffffff16815260200190815260200160002060020160008282546106309190611f90565b9250508190555080600160003373ffffffffffffffffffffffffffffffffffffffff1673ffffffffffffffffffffffffffffffffffffffff16815260200190815260200160002060030160008282546106899190611a31565b925050819055506109a2565b81600160003373ffffffffffffffffffffffffffffffffffffffff1673ffffffffffffffffffffffffffffffffffffffff16815260200190815260200160002060040160008573ffffffffffffffffffffffffffffffffffffffff1673ffffffffffffffffffffffffffffffffffffffff168152602001908152602001600020541015610757576040517f08c379a000000000000000000000000000000000000000000000000000000000815260040161074e90612010565b60405180910390fd5b600460008781526020019081526020016000206003016040518060a0016040528087815260200184815260200186151581526020018573ffffffffffffffffffffffffffffffffffffffff168152602001600015158152509080600181540180825580915050600190039060005260206000209060030201600090919091909150600082015181600001556020820151816001015560408201518160020160006101000a81548160ff02191690831515021790555060608201518160020160016101000a81548173ffffffffffffffffffffffffffffffffffffffff021916908373ffffffffffffffffffffffffffffffffffffffff16021790555060808201518160020160156101000a81548160ff021916908315150217905550505081600160003373ffffffffffffffffffffffffffffffffffffffff1673ffffffffffffffffffffffffffffffffffffffff16815260200190815260200160002060040160008573ffffffffffffffffffffffffffffffffffffffff1673ffffffffffffffffffffffffffffffffffffffff16815260200190815260200160002060008282546109049190611f90565b9250508190555081600160003373ffffffffffffffffffffffffffffffffffffffff1673ffffffffffffffffffffffffffffffffffffffff16815260200190815260200160002060050160008573ffffffffffffffffffffffffffffffffffffffff1673ffffffffffffffffffffffffffffffffffffffff168152602001908152602001600020600082825461099a9190611a31565b925050819055505b505050505050565b60046020528060005260406000206000915090508060000160009054906101000a900473ffffffffffffffffffffffffffffffffffffffff16908060010160009054906101000a900473ffffffffffffffffffffffffffffffffffffffff16908060020154908060040160009054906101000a900460ff16908060040160019054906101000a900460ff16908060040160029054906101000a900460ff16905086565b8073ffffffffffffffffffffffffffffffffffffffff163373ffffffffffffffffffffffffffffffffffffffff161415610abc576040517f08c379a0000000000000000000000000000000000000000000000000000000008152600401610ab39061207c565b60405180910390fd5b600160003373ffffffffffffffffffffffffffffffffffffffff1673ffffffffffffffffffffffffffffffffffffffff16815260200190815260200160002060010160009054906101000a900460ff16610b1957610b18610ce6565b5b600160008273ffffffffffffffffffffffffffffffffffffffff1673ffffffffffffffffffffffffffffffffffffffff16815260200190815260200160002060010160019054906101000a900460ff16610ba8576040517f08c379a0000000000000000000000000000000000000000000000000000000008152600401610b9f906120e8565b60405180910390fd5b60036000815480929190610bbb90612108565b919050555060006004600060035481526020019081526020016000209050338160000160006101000a81548173ffffffffffffffffffffffffffffffffffffffff021916908373ffffffffffffffffffffffffffffffffffffffff160217905550818160010160006101000a81548173ffffffffffffffffffffffffffffffffffffffff021916908373ffffffffffffffffffffffffffffffffffffffff1602179055506000816002018190555060008160040160016101000a81548160ff02191690831515021790555060008160040160026101000a81548160ff0219169083151502179055507f8ad03fb395e9fb495b6c2ed1ee55846aaf848231e0f986d4a32ddcf0bb5bd180600354604051610cd49190611cf1565b60405180910390a15050565b60035481565b600160003373ffffffffffffffffffffffffffffffffffffffff1673ffffffffffffffffffffffffffffffffffffffff16815260200190815260200160002060010160009054906101000a900460ff1615610d76576040517f08c379a0000000000000000000000000000000000000000000000000000000008152600401610d6d906121c3565b60405180910390fd5b6000600160003373ffffffffffffffffffffffffffffffffffffffff1673ffffffffffffffffffffffffffffffffffffffff16815260200190815260200160002090506000816000015414610de85760018160010160006101000a81548160ff02191690831515021790555050610e29565b600080815480929190610dfa90612108565b9190505550600054816000018190555060018160010160006101000a81548160ff021916908315150217905550505b565b600160003373ffffffffffffffffffffffffffffffffffffffff1673ffffffffffffffffffffffffffffffffffffffff16815260200190815260200160002060010160019054906101000a900460ff1615610ebb576040517f08c379a0000000000000000000000000000000000000000000000000000000008152600401610eb290612255565b60405180910390fd5b6000600160003373ffffffffffffffffffffffffffffffffffffffff1673ffffffffffffffffffffffffffffffffffffffff16815260200190815260200160002090506000816000015414610f2d5760018160010160016101000a81548160ff02191690831515021790555050610f6e565b600080815480929190610f3f90612108565b9190505550600054816000018190555060018160010160016101000a81548160ff021916908315150217905550505b565b600260149054906101000a900460ff1681565b3373ffffffffffffffffffffffffffffffffffffffff166004600084815260200190815260200160002060000160009054906101000a900473ffffffffffffffffffffffffffffffffffffffff1673ffffffffffffffffffffffffffffffffffffffff1614611027576040517f08c379a000000000000000000000000000000000000000000000000000000000815260040161101e906122e7565b60405180910390fd5b6004600083815260200190815260200160002060040160019054906101000a900460ff161561108b576040517f08c379a000000000000000000000000000000000000000000000000000000000815260040161108290612353565b60405180910390fd5b60006004600084815260200190815260200160002090506000816003018360ff16815481106110bd576110bc612373565b5b9060005260206000209060030201905081600301805490508360ff1610611119576040517f08c379a0000000000000000000000000000000000000000000000000000000008152600401611110906123ee565b60405180910390fd5b8060020160159054906101000a900460ff161561116b576040517f08c379a000000000000000000000000000000000000000000000000000000000815260040161116290612480565b60405180910390fd5b8060020160009054906101000a900460ff16611252578160010160009054906101000a900473ffffffffffffffffffffffffffffffffffffffff1673ffffffffffffffffffffffffffffffffffffffff166108fc82600101549081150290604051600060405180830381858888f193505050501580156111ef573d6000803e3d6000fd5b508060010154600160003373ffffffffffffffffffffffffffffffffffffffff1673ffffffffffffffffffffffffffffffffffffffff16815260200190815260200160002060030160008282546112469190611f90565b925050819055506113ed565b8060020160019054906101000a900473ffffffffffffffffffffffffffffffffffffffff1673ffffffffffffffffffffffffffffffffffffffff166323b872dd308460010160009054906101000a900473ffffffffffffffffffffffffffffffffffffffff1684600101546040518463ffffffff1660e01b81526004016112db9392919061250e565b602060405180830381600087803b1580156112f557600080fd5b505af1158015611309573d6000803e3d6000fd5b505050506040513d601f19601f8201168201806040525081019061132d919061255a565b508060010154600160003373ffffffffffffffffffffffffffffffffffffffff1673ffffffffffffffffffffffffffffffffffffffff16815260200190815260200160002060050160008360020160019054906101000a900473ffffffffffffffffffffffffffffffffffffffff1673ffffffffffffffffffffffffffffffffffffffff1673ffffffffffffffffffffffffffffffffffffffff16815260200190815260200160002060008282546113e59190611f90565b925050819055505b60018160020160156101000a81548160ff02191690831515021790555081600401600081819054906101000a900460ff168092919061142b90612587565b91906101000a81548160ff021916908360ff1602179055505081600301805490508260040160009054906101000a900460ff1660ff1614156114855760018260040160016101000a81548160ff0219169083151502179055505b50505050565b60016020528060005260406000206000915090508060000154908060010160009054906101000a900460ff16908060010160019054906101000a900460ff16908060020154908060030154905085565b600260009054906101000a900473ffffffffffffffffffffffffffffffffffffffff1681565b6000819050828173ffffffffffffffffffffffffffffffffffffffff1663dd62ed3e33306040518363ffffffff1660e01b81526004016115429291906125b1565b60206040518083038186803b15801561155a57600080fd5b505afa15801561156e573d6000803e3d6000fd5b505050506040513d601f19601f8201168201806040525081019061159291906125ef565b10156115d3576040517f08c379a00000000000000000000000000000000000000000000000000000000081526004016115ca9061268e565b60405180910390fd5b60008173ffffffffffffffffffffffffffffffffffffffff166370a08231306040518263ffffffff1660e01b815260040161160e91906126ae565b60206040518083038186803b15801561162657600080fd5b505afa15801561163a573d6000803e3d6000fd5b505050506040513d601f19601f8201168201806040525081019061165e91906125ef565b90508173ffffffffffffffffffffffffffffffffffffffff166323b872dd3330876040518463ffffffff1660e01b815260040161169d939291906126c9565b602060405180830381600087803b1580156116b757600080fd5b505af11580156116cb573d6000803e3d6000fd5b505050506040513d601f19601f820116820180604052508101906116ef919061255a565b5083818373ffffffffffffffffffffffffffffffffffffffff166370a08231306040518263ffffffff1660e01b815260040161172b91906126ae565b60206040518083038186803b15801561174357600080fd5b505afa158015611757573d6000803e3d6000fd5b505050506040513d601f19601f8201168201806040525081019061177b91906125ef565b6117859190611f90565b10611827576000600160003373ffffffffffffffffffffffffffffffffffffffff1673ffffffffffffffffffffffffffffffffffffffff1681526020019081526020016000209050848160040160008673ffffffffffffffffffffffffffffffffffffffff1673ffffffffffffffffffffffffffffffffffffffff168152602001908152602001600020600082825461181e9190611a31565b92505081905550505b50505050565b81600260006101000a81548173ffffffffffffffffffffffffffffffffffffffff021916908373ffffffffffffffffffffffffffffffffffffffff16021790555080600260146101000a81548160ff021916908360ff1602179055505050565b600160003373ffffffffffffffffffffffffffffffffffffffff1673ffffffffffffffffffffffffffffffffffffffff16815260200190815260200160002060010160019054906101000a900460ff1661191c576040517f08c379a000000000000000000000000000000000000000000000000000000000815260040161191390612772565b60405180910390fd5b3373ffffffffffffffffffffffffffffffffffffffff166004600083815260200190815260200160002060010160009054906101000a900473ffffffffffffffffffffffffffffffffffffffff1673ffffffffffffffffffffffffffffffffffffffff16146119c0576040517f08c379a00000000000000000000000000000000000000000000000000000000081526004016119b790612804565b60405180910390fd5b60016004600083815260200190815260200160002060040160026101000a81548160ff02191690831515021790555050565b60005481565b6000819050919050565b7f4e487b7100000000000000000000000000000000000000000000000000000000600052601160045260246000fd5b6000611a3c826119f8565b9150611a47836119f8565b9250827fffffffffffffffffffffffffffffffffffffffffffffffffffffffffffffffff03821115611a7c57611a7b611a02565b5b828201905092915050565b600080fd5b611a95816119f8565b8114611aa057600080fd5b50565b600081359050611ab281611a8c565b92915050565b60008115159050919050565b611acd81611ab8565b8114611ad857600080fd5b50565b600081359050611aea81611ac4565b92915050565b600073ffffffffffffffffffffffffffffffffffffffff82169050919050565b6000611b1b82611af0565b9050919050565b611b2b81611b10565b8114611b3657600080fd5b50565b600081359050611b4881611b22565b92915050565b60008060008060008060c08789031215611b6b57611b6a611a87565b5b6000611b7989828a01611aa3565b9650506020611b8a89828a01611aa3565b9550506040611b9b89828a01611adb565b9450506060611bac89828a01611b39565b9350506080611bbd89828a01611aa3565b92505060a0611bce89828a01611aa3565b9150509295509295509295565b600060208284031215611bf157611bf0611a87565b5b6000611bff84828501611aa3565b91505092915050565b6000611c1382611af0565b9050919050565b611c2381611c08565b82525050565b611c32816119f8565b82525050565b600060ff82169050919050565b611c4e81611c38565b82525050565b611c5d81611ab8565b82525050565b600060c082019050611c786000830189611c1a565b611c856020830188611c1a565b611c926040830187611c29565b611c9f6060830186611c45565b611cac6080830185611c54565b611cb960a0830184611c54565b979650505050505050565b600060208284031215611cda57611cd9611a87565b5b6000611ce884828501611b39565b91505092915050565b6000602082019050611d066000830184611c29565b92915050565b6000602082019050611d216000830184611c45565b92915050565b611d3081611c38565b8114611d3b57600080fd5b50565b600081359050611d4d81611d27565b92915050565b60008060408385031215611d6a57611d69611a87565b5b6000611d7885828601611aa3565b9250506020611d8985828601611d3e565b9150509250929050565b600060a082019050611da86000830188611c29565b611db56020830187611c54565b611dc26040830186611c54565b611dcf6060830185611c29565b611ddc6080830184611c29565b9695505050505050565b6000602082019050611dfb6000830184611c1a565b92915050565b60008060408385031215611e1857611e17611a87565b5b6000611e2685828601611aa3565b9250506020611e3785828601611b39565b9150509250929050565b60008060408385031215611e5857611e57611a87565b5b6000611e6685828601611b39565b9250506020611e7785828601611d3e565b9150509250929050565b600082825260208201905092915050565b7f596f7520617265206e6f7420746865206f776e6572206f66207468697320707260008201527f6f6a656374000000000000000000000000000000000000000000000000000000602082015250565b6000611eee602583611e81565b9150611ef982611e92565b604082019050919050565b60006020820190508181036000830152611f1d81611ee1565b9050919050565b7f6e6f7420656e6f7567682065746820696e207661756c74000000000000000000600082015250565b6000611f5a601783611e81565b9150611f6582611f24565b602082019050919050565b60006020820190508181036000830152611f8981611f4d565b9050919050565b6000611f9b826119f8565b9150611fa6836119f8565b925082821015611fb957611fb8611a02565b5b828203905092915050565b7f6e6f7420656e6f75676820657263323020746f6b656e20696e207661756c7400600082015250565b6000611ffa601f83611e81565b915061200582611fc4565b602082019050919050565b6000602082019050818103600083015261202981611fed565b9050919050565b7f596f752063616e6e6f7420776f726b20666f7220796f757273656c6600000000600082015250565b6000612066601c83611e81565b915061207182612030565b602082019050919050565b6000602082019050818103600083015261209581612059565b9050919050565b7f5468697320667265656c616e63657220646f6573206e6f742065786973740000600082015250565b60006120d2601e83611e81565b91506120dd8261209c565b602082019050919050565b60006020820190508181036000830152612101816120c5565b9050919050565b6000612113826119f8565b91507fffffffffffffffffffffffffffffffffffffffffffffffffffffffffffffffff82141561214657612145611a02565b5b600182019050919050565b7f546869732061646472657373206973207265676973746572656420617320612060008201527f636c69656e740000000000000000000000000000000000000000000000000000602082015250565b60006121ad602683611e81565b91506121b882612151565b604082019050919050565b600060208201905081810360008301526121dc816121a0565b9050919050565b7f546869732061646472657373206973207265676973746572656420617320612060008201527f667265656c616e63657200000000000000000000000000000000000000000000602082015250565b600061223f602a83611e81565b915061224a826121e3565b604082019050919050565b6000602082019050818103600083015261226e81612232565b9050919050565b7f4f6e6c79207468652070726f6a656374206f776e65722063616e2063616c6c2060008201527f746869732066756e6374696f6e00000000000000000000000000000000000000602082015250565b60006122d1602d83611e81565b91506122dc82612275565b604082019050919050565b60006020820190508181036000830152612300816122c4565b9050919050565b7f546869732070726f6a65637420686173206265656e20636f6d706c6574656400600082015250565b600061233d601f83611e81565b915061234882612307565b602082019050919050565b6000602082019050818103600083015261236c81612330565b9050919050565b7f4e487b7100000000000000000000000000000000000000000000000000000000600052603260045260246000fd5b7f54686973206d696c6573746f6e6520646f6573206e6f74206578697374000000600082015250565b60006123d8601d83611e81565b91506123e3826123a2565b602082019050919050565b60006020820190508181036000830152612407816123cb565b9050919050565b7f54686973206d696c6573746f6e6520686173206265656e206d61726b6564206160008201527f7320636f6d706c65746564000000000000000000000000000000000000000000602082015250565b600061246a602b83611e81565b91506124758261240e565b604082019050919050565b600060208201905081810360008301526124998161245d565b9050919050565b6124a981611b10565b82525050565b6000819050919050565b60006124d46124cf6124ca84611af0565b6124af565b611af0565b9050919050565b60006124e6826124b9565b9050919050565b60006124f8826124db565b9050919050565b612508816124ed565b82525050565b600060608201905061252360008301866124a0565b61253060208301856124ff565b61253d6040830184611c29565b949350505050565b60008151905061255481611ac4565b92915050565b6000602082840312156125705761256f611a87565b5b600061257e84828501612545565b91505092915050565b600061259282611c38565b915060ff8214156125a6576125a5611a02565b5b600182019050919050565b60006040820190506125c660008301856124a0565b6125d360208301846124a0565b9392505050565b6000815190506125e981611a8c565b92915050565b60006020828403121561260557612604611a87565b5b6000612613848285016125da565b91505092915050565b7f5468657265206973206e6f20616d6f756e7420617070726f76656420746f207360008201527f70656e6400000000000000000000000000000000000000000000000000000000602082015250565b6000612678602483611e81565b91506126838261261c565b604082019050919050565b600060208201905081810360008301526126a78161266b565b9050919050565b60006020820190506126c360008301846124a0565b92915050565b60006060820190506126de60008301866124a0565b6126eb60208301856124a0565b6126f86040830184611c29565b949350505050565b7f596f7520617265206e6f7420726567697374657265642061732061206672656560008201527f6c616e6365720000000000000000000000000000000000000000000000000000602082015250565b600061275c602683611e81565b915061276782612700565b604082019050919050565b6000602082019050818103600083015261278b8161274f565b9050919050565b7f596f7520617265206e6f742074686520667265656c616e63657220666f72207460008201527f6869732070726f6a656374000000000000000000000000000000000000000000602082015250565b60006127ee602b83611e81565b91506127f982612792565b604082019050919050565b6000602082019050818103600083015261281d816127e1565b905091905056fea2646970667358221220b7845501da77526959716f37a45dea3c6f0abd4148d372149de0e249527607e164736f6c63430008090033",
  "linkReferences": {},
  "deployedLinkReferences": {}
}