{
  "_format": "hh-sol-artifact-1",
  "contractName": "Deelance",
  "sourceName": "contracts/Deelance.sol",
  "abi": [
    {
      "anonymous": false,
      "inputs": [
        {
          "indexed": true,
          "internalType": "uint256",
          "name": "projectId",
          "type": "uint256"
        },
        {
          "indexed": false,
          "internalType": "uint256",
          "name": "deadline",
          "type": "uint256"
        },
        {
          "indexed": false,
          "internalType": "uint256",
          "name": "amount",
          "type": "uint256"
        }
      ],
      "name": "MilestoneAdded",
      "type": "event"
    },
    {
      "anonymous": false,
      "inputs": [
        {
          "indexed": true,
          "internalType": "bytes32",
          "name": "gig_orderId",
          "type": "bytes32"
        },
        {
          "indexed": false,
          "internalType": "uint256",
          "name": "id",
          "type": "uint256"
        }
      ],
      "name": "StartedProject",
      "type": "event"
    },
    {
      "inputs": [
        {
          "internalType": "uint256",
          "name": "projectId",
          "type": "uint256"
        },
        {
          "internalType": "uint256",
          "name": "deadline",
          "type": "uint256"
        },
        {
          "internalType": "bool",
          "name": "isERC",
          "type": "bool"
        },
        {
          "internalType": "address",
          "name": "_token",
          "type": "address"
        },
        {
          "internalType": "uint256",
          "name": "_amount",
          "type": "uint256"
        }
      ],
      "name": "addMilestone",
      "outputs": [],
      "stateMutability": "payable",
      "type": "function"
    },
    {
      "inputs": [
        {
          "internalType": "address",
          "name": "bank",
          "type": "address"
        },
        {
          "internalType": "uint8",
          "name": "percentage",
          "type": "uint8"
        }
      ],
      "name": "construct",
      "outputs": [],
      "stateMutability": "nonpayable",
      "type": "function"
    },
    {
      "inputs": [],
      "name": "feeBank",
      "outputs": [
        {
          "internalType": "address payable",
          "name": "",
          "type": "address"
        }
      ],
      "stateMutability": "view",
      "type": "function"
    },
    {
      "inputs": [],
      "name": "feePercent",
      "outputs": [
        {
          "internalType": "uint8",
          "name": "",
          "type": "uint8"
        }
      ],
      "stateMutability": "view",
      "type": "function"
    },
    {
      "inputs": [
        {
          "internalType": "uint256",
          "name": "_amount",
          "type": "uint256"
        },
        {
          "internalType": "address",
          "name": "_token",
          "type": "address"
        }
      ],
      "name": "fundWithERC20",
      "outputs": [],
      "stateMutability": "nonpayable",
      "type": "function"
    },
    {
      "inputs": [
        {
          "internalType": "address",
          "name": "depositor",
          "type": "address"
        },
        {
          "internalType": "address",
          "name": "tokenAddress",
          "type": "address"
        }
      ],
      "name": "getERC20InVault",
      "outputs": [
        {
          "internalType": "uint256",
          "name": "",
          "type": "uint256"
        }
      ],
      "stateMutability": "view",
      "type": "function"
    },
    {
      "inputs": [
        {
          "internalType": "address",
          "name": "depositor",
          "type": "address"
        },
        {
          "internalType": "address",
          "name": "tokenAddress",
          "type": "address"
        }
      ],
      "name": "getERC20OutOfVault",
      "outputs": [
        {
          "internalType": "uint256",
          "name": "",
          "type": "uint256"
        }
      ],
      "stateMutability": "view",
      "type": "function"
    },
    {
      "inputs": [
        {
          "internalType": "address",
          "name": "depositor",
          "type": "address"
        }
      ],
      "name": "getEthInVault",
      "outputs": [
        {
          "internalType": "uint256",
          "name": "",
          "type": "uint256"
        }
      ],
      "stateMutability": "view",
      "type": "function"
    },
    {
      "inputs": [
        {
          "internalType": "address",
          "name": "depositor",
          "type": "address"
        }
      ],
      "name": "getEthOutOfVault",
      "outputs": [
        {
          "internalType": "uint256",
          "name": "",
          "type": "uint256"
        }
      ],
      "stateMutability": "view",
      "type": "function"
    },
    {
      "inputs": [
        {
          "internalType": "uint256",
          "name": "projectId",
          "type": "uint256"
        }
      ],
      "name": "getMilestones",
      "outputs": [
        {
          "components": [
            {
              "internalType": "uint256",
              "name": "deadline",
              "type": "uint256"
            },
            {
              "internalType": "uint256",
              "name": "payment",
              "type": "uint256"
            },
            {
              "internalType": "bool",
              "name": "isERC",
              "type": "bool"
            },
            {
              "internalType": "address",
              "name": "token",
              "type": "address"
            },
            {
              "internalType": "bool",
              "name": "completed",
              "type": "bool"
            }
          ],
          "internalType": "struct Deelance.Milestone[]",
          "name": "milestone",
          "type": "tuple[]"
        }
      ],
      "stateMutability": "view",
      "type": "function"
    },
    {
      "inputs": [
        {
          "internalType": "uint256",
          "name": "projectId",
          "type": "uint256"
        }
      ],
      "name": "joinProject",
      "outputs": [],
      "stateMutability": "nonpayable",
      "type": "function"
    },
    {
      "inputs": [
        {
          "internalType": "uint256",
          "name": "projectId",
          "type": "uint256"
        },
        {
          "internalType": "uint8",
          "name": "milestoneId",
          "type": "uint8"
        }
      ],
      "name": "milestoneCompleted",
      "outputs": [],
      "stateMutability": "nonpayable",
      "type": "function"
    },
    {
      "inputs": [
        {
          "internalType": "uint256",
          "name": "",
          "type": "uint256"
        }
      ],
      "name": "projects",
      "outputs": [
        {
          "internalType": "address payable",
          "name": "client",
          "type": "address"
        },
        {
          "internalType": "address payable",
          "name": "freelancer",
          "type": "address"
        },
        {
          "internalType": "uint256",
          "name": "budget",
          "type": "uint256"
        },
        {
          "internalType": "uint8",
          "name": "completedMilestones",
          "type": "uint8"
        },
        {
          "internalType": "bool",
          "name": "completed",
          "type": "bool"
        },
        {
          "internalType": "bool",
          "name": "approved",
          "type": "bool"
        }
      ],
      "stateMutability": "view",
      "type": "function"
    },
    {
      "inputs": [],
      "name": "projectsId",
      "outputs": [
        {
          "internalType": "uint256",
          "name": "",
          "type": "uint256"
        }
      ],
      "stateMutability": "view",
      "type": "function"
    },
    {
      "inputs": [],
      "name": "registerClient",
      "outputs": [],
      "stateMutability": "nonpayable",
      "type": "function"
    },
    {
      "inputs": [],
      "name": "registerFreelancer",
      "outputs": [],
      "stateMutability": "nonpayable",
      "type": "function"
    },
    {
      "inputs": [
        {
          "internalType": "bytes32",
          "name": "gig_orderId",
          "type": "bytes32"
        },
        {
          "internalType": "address",
          "name": "freelancerAddress",
          "type": "address"
        }
      ],
      "name": "startProject",
      "outputs": [],
      "stateMutability": "nonpayable",
      "type": "function"
    },
    {
      "inputs": [
        {
          "internalType": "address",
          "name": "",
          "type": "address"
        }
      ],
      "name": "users",
      "outputs": [
        {
          "internalType": "uint256",
          "name": "userId",
          "type": "uint256"
        },
        {
          "internalType": "bool",
          "name": "isClient",
          "type": "bool"
        },
        {
          "internalType": "bool",
          "name": "isFreelancer",
          "type": "bool"
        },
        {
          "internalType": "uint256",
          "name": "ethInVault",
          "type": "uint256"
        },
        {
          "internalType": "uint256",
          "name": "ethOutOfVault",
          "type": "uint256"
        }
      ],
      "stateMutability": "view",
      "type": "function"
    },
    {
      "inputs": [],
      "name": "usersId",
      "outputs": [
        {
          "internalType": "uint256",
          "name": "",
          "type": "uint256"
        }
      ],
      "stateMutability": "view",
      "type": "function"
    },
    {
      "stateMutability": "payable",
      "type": "receive"
    }
  ],
  "bytecode": "0x608060405234801561001057600080fd5b50612ee1806100206000396000f3fe6080604052600436106101185760003560e01c8063a87430ba116100a0578063d81b423a11610064578063d81b423a14610424578063df98e5f91461044d578063e22cf44714610476578063e6790928146104b3578063f1f1b8a6146104de5761017e565b8063a87430ba14610329578063af15d7861461036a578063b61ead0d14610395578063be0f431e146103d2578063bfb457b6146103fb5761017e565b80636198f297116100e75780636198f2971461027c5780636d9fb287146102a75780637721710e146102be5780637fd6f15c146102d5578063851266fa146103005761017e565b8063107046bd14610183578063254de6bb146101c55780633f594a0d1461020257806342c549c01461023f5761017e565b3661017e576000600160003373ffffffffffffffffffffffffffffffffffffffff1673ffffffffffffffffffffffffffffffffffffffff1681526020019081526020016000209050348160020160008282546101749190611e93565b9250508190555050005b600080fd5b34801561018f57600080fd5b506101aa60048036038101906101a59190611f1a565b6104fa565b6040516101bc96959493929190611fce565b60405180910390f35b3480156101d157600080fd5b506101ec60048036038101906101e7919061206d565b61059d565b6040516101f991906120ad565b60405180910390f35b34801561020e57600080fd5b50610229600480360381019061022491906120c8565b610627565b60405161023691906120ad565b60405180910390f35b34801561024b57600080fd5b5061026660048036038101906102619190611f1a565b610673565b6040516102739190612239565b60405180910390f35b34801561028857600080fd5b50610291610788565b60405161029e91906120ad565b60405180910390f35b3480156102b357600080fd5b506102bc61078e565b005b3480156102ca57600080fd5b506102d36108d3565b005b3480156102e157600080fd5b506102ea610a18565b6040516102f7919061225b565b60405180910390f35b34801561030c57600080fd5b50610327600480360381019061032291906122a2565b610a2b565b005b34801561033557600080fd5b50610350600480360381019061034b91906120c8565b610f31565b6040516103619594939291906122e2565b60405180910390f35b34801561037657600080fd5b5061037f610f81565b60405161038c9190612335565b60405180910390f35b3480156103a157600080fd5b506103bc60048036038101906103b791906120c8565b610fa7565b6040516103c991906120ad565b60405180910390f35b3480156103de57600080fd5b506103f960048036038101906103f49190612350565b610ff3565b005b34801561040757600080fd5b50610422600480360381019061041d91906123c6565b61131f565b005b34801561043057600080fd5b5061044b60048036038101906104469190612406565b6115b4565b005b34801561045957600080fd5b50610474600480360381019061046f9190611f1a565b611614565b005b34801561048257600080fd5b5061049d6004803603810190610498919061206d565b611779565b6040516104aa91906120ad565b60405180910390f35b3480156104bf57600080fd5b506104c8611803565b6040516104d591906120ad565b60405180910390f35b6104f860048036038101906104f39190612472565b611809565b005b60046020528060005260406000206000915090508060000160009054906101000a900473ffffffffffffffffffffffffffffffffffffffff16908060010160009054906101000a900473ffffffffffffffffffffffffffffffffffffffff16908060020154908060040160009054906101000a900460ff16908060040160019054906101000a900460ff16908060040160029054906101000a900460ff16905086565b6000600160008473ffffffffffffffffffffffffffffffffffffffff1673ffffffffffffffffffffffffffffffffffffffff16815260200190815260200160002060040160008373ffffffffffffffffffffffffffffffffffffffff1673ffffffffffffffffffffffffffffffffffffffff16815260200190815260200160002054905092915050565b6000600160008373ffffffffffffffffffffffffffffffffffffffff1673ffffffffffffffffffffffffffffffffffffffff168152602001908152602001600020600301549050919050565b606060046000838152602001908152602001600020600301805480602002602001604051908101604052809291908181526020016000905b8282101561077d57838290600052602060002090600302016040518060a001604052908160008201548152602001600182015481526020016002820160009054906101000a900460ff161515151581526020016002820160019054906101000a900473ffffffffffffffffffffffffffffffffffffffff1673ffffffffffffffffffffffffffffffffffffffff1673ffffffffffffffffffffffffffffffffffffffff1681526020016002820160159054906101000a900460ff161515151581525050815260200190600101906106ab565b505050509050919050565b60035481565b600160003373ffffffffffffffffffffffffffffffffffffffff1673ffffffffffffffffffffffffffffffffffffffff16815260200190815260200160002060010160009054906101000a900460ff161561081e576040517f08c379a000000000000000000000000000000000000000000000000000000000815260040161081590612570565b60405180910390fd5b6000600160003373ffffffffffffffffffffffffffffffffffffffff1673ffffffffffffffffffffffffffffffffffffffff168152602001908152602001600020905060008160000154146108905760018160010160006101000a81548160ff021916908315150217905550506108d1565b6000808154809291906108a290612590565b9190505550600054816000018190555060018160010160006101000a81548160ff021916908315150217905550505b565b600160003373ffffffffffffffffffffffffffffffffffffffff1673ffffffffffffffffffffffffffffffffffffffff16815260200190815260200160002060010160019054906101000a900460ff1615610963576040517f08c379a000000000000000000000000000000000000000000000000000000000815260040161095a9061264b565b60405180910390fd5b6000600160003373ffffffffffffffffffffffffffffffffffffffff1673ffffffffffffffffffffffffffffffffffffffff168152602001908152602001600020905060008160000154146109d55760018160010160016101000a81548160ff02191690831515021790555050610a16565b6000808154809291906109e790612590565b9190505550600054816000018190555060018160010160016101000a81548160ff021916908315150217905550505b565b600260149054906101000a900460ff1681565b3373ffffffffffffffffffffffffffffffffffffffff166004600084815260200190815260200160002060000160009054906101000a900473ffffffffffffffffffffffffffffffffffffffff1673ffffffffffffffffffffffffffffffffffffffff1614610acf576040517f08c379a0000000000000000000000000000000000000000000000000000000008152600401610ac6906126dd565b60405180910390fd5b6004600083815260200190815260200160002060040160019054906101000a900460ff1615610b33576040517f08c379a0000000000000000000000000000000000000000000000000000000008152600401610b2a90612749565b60405180910390fd5b600060046000848152602001908152602001600020905080600301805490508260ff1610610b96576040517f08c379a0000000000000000000000000000000000000000000000000000000008152600401610b8d906127b5565b60405180910390fd5b6000816003018360ff1681548110610bb157610bb06127d5565b5b906000526020600020906003020190508060020160159054906101000a900460ff1615610c13576040517f08c379a0000000000000000000000000000000000000000000000000000000008152600401610c0a90612876565b60405180910390fd5b8060020160009054906101000a900460ff16610cfa578160010160009054906101000a900473ffffffffffffffffffffffffffffffffffffffff1673ffffffffffffffffffffffffffffffffffffffff166108fc82600101549081150290604051600060405180830381858888f19350505050158015610c97573d6000803e3d6000fd5b508060010154600160003373ffffffffffffffffffffffffffffffffffffffff1673ffffffffffffffffffffffffffffffffffffffff1681526020019081526020016000206003016000828254610cee9190612896565b92505081905550610e93565b8060020160019054906101000a900473ffffffffffffffffffffffffffffffffffffffff1673ffffffffffffffffffffffffffffffffffffffff1663a9059cbb8360010160009054906101000a900473ffffffffffffffffffffffffffffffffffffffff1683600101546040518363ffffffff1660e01b8152600401610d81929190612929565b602060405180830381600087803b158015610d9b57600080fd5b505af1158015610daf573d6000803e3d6000fd5b505050506040513d601f19601f82011682018060405250810190610dd39190612967565b508060010154600160003373ffffffffffffffffffffffffffffffffffffffff1673ffffffffffffffffffffffffffffffffffffffff16815260200190815260200160002060050160008360020160019054906101000a900473ffffffffffffffffffffffffffffffffffffffff1673ffffffffffffffffffffffffffffffffffffffff1673ffffffffffffffffffffffffffffffffffffffff1681526020019081526020016000206000828254610e8b9190612896565b925050819055505b60018160020160156101000a81548160ff02191690831515021790555081600401600081819054906101000a900460ff1680929190610ed190612994565b91906101000a81548160ff021916908360ff1602179055505081600301805490508260040160009054906101000a900460ff1660ff161415610f2b5760018260040160016101000a81548160ff0219169083151502179055505b50505050565b60016020528060005260406000206000915090508060000154908060010160009054906101000a900460ff16908060010160019054906101000a900460ff16908060020154908060030154905085565b600260009054906101000a900473ffffffffffffffffffffffffffffffffffffffff1681565b6000600160008373ffffffffffffffffffffffffffffffffffffffff1673ffffffffffffffffffffffffffffffffffffffff168152602001908152602001600020600201549050919050565b6000819050828173ffffffffffffffffffffffffffffffffffffffff1663dd62ed3e33306040518363ffffffff1660e01b81526004016110349291906129cd565b60206040518083038186803b15801561104c57600080fd5b505afa158015611060573d6000803e3d6000fd5b505050506040513d601f19601f820116820180604052508101906110849190612a0b565b10156110c5576040517f08c379a00000000000000000000000000000000000000000000000000000000081526004016110bc90612aaa565b60405180910390fd5b60008173ffffffffffffffffffffffffffffffffffffffff166370a08231306040518263ffffffff1660e01b81526004016111009190612aca565b60206040518083038186803b15801561111857600080fd5b505afa15801561112c573d6000803e3d6000fd5b505050506040513d601f19601f820116820180604052508101906111509190612a0b565b90508173ffffffffffffffffffffffffffffffffffffffff166323b872dd3330876040518463ffffffff1660e01b815260040161118f93929190612ae5565b602060405180830381600087803b1580156111a957600080fd5b505af11580156111bd573d6000803e3d6000fd5b505050506040513d601f19601f820116820180604052508101906111e19190612967565b5083818373ffffffffffffffffffffffffffffffffffffffff166370a08231306040518263ffffffff1660e01b815260040161121d9190612aca565b60206040518083038186803b15801561123557600080fd5b505afa158015611249573d6000803e3d6000fd5b505050506040513d601f19601f8201168201806040525081019061126d9190612a0b565b6112779190612896565b10611319576000600160003373ffffffffffffffffffffffffffffffffffffffff1673ffffffffffffffffffffffffffffffffffffffff1681526020019081526020016000209050848160040160008673ffffffffffffffffffffffffffffffffffffffff1673ffffffffffffffffffffffffffffffffffffffff16815260200190815260200160002060008282546113109190611e93565b92505081905550505b50505050565b8073ffffffffffffffffffffffffffffffffffffffff163373ffffffffffffffffffffffffffffffffffffffff16141561138e576040517f08c379a000000000000000000000000000000000000000000000000000000000815260040161138590612b68565b60405180910390fd5b600160003373ffffffffffffffffffffffffffffffffffffffff1673ffffffffffffffffffffffffffffffffffffffff16815260200190815260200160002060010160009054906101000a900460ff166113eb576113ea61078e565b5b600160008273ffffffffffffffffffffffffffffffffffffffff1673ffffffffffffffffffffffffffffffffffffffff16815260200190815260200160002060010160019054906101000a900460ff1661147a576040517f08c379a000000000000000000000000000000000000000000000000000000000815260040161147190612bd4565b60405180910390fd5b6003600081548092919061148d90612590565b919050555060006004600060035481526020019081526020016000209050338160000160006101000a81548173ffffffffffffffffffffffffffffffffffffffff021916908373ffffffffffffffffffffffffffffffffffffffff160217905550818160010160006101000a81548173ffffffffffffffffffffffffffffffffffffffff021916908373ffffffffffffffffffffffffffffffffffffffff1602179055506000816002018190555060008160040160016101000a81548160ff02191690831515021790555060008160040160026101000a81548160ff021916908315150217905550827f44815bdb52027a50a2f322e2ac3e126a52f96567b6a82aa6f4e0502e0d858c506003546040516115a791906120ad565b60405180910390a2505050565b81600260006101000a81548173ffffffffffffffffffffffffffffffffffffffff021916908373ffffffffffffffffffffffffffffffffffffffff16021790555080600260146101000a81548160ff021916908360ff1602179055505050565b600160003373ffffffffffffffffffffffffffffffffffffffff1673ffffffffffffffffffffffffffffffffffffffff16815260200190815260200160002060010160019054906101000a900460ff166116a3576040517f08c379a000000000000000000000000000000000000000000000000000000000815260040161169a90612c66565b60405180910390fd5b3373ffffffffffffffffffffffffffffffffffffffff166004600083815260200190815260200160002060010160009054906101000a900473ffffffffffffffffffffffffffffffffffffffff1673ffffffffffffffffffffffffffffffffffffffff1614611747576040517f08c379a000000000000000000000000000000000000000000000000000000000815260040161173e90612cf8565b60405180910390fd5b60016004600083815260200190815260200160002060040160026101000a81548160ff02191690831515021790555050565b6000600160008473ffffffffffffffffffffffffffffffffffffffff1673ffffffffffffffffffffffffffffffffffffffff16815260200190815260200160002060050160008373ffffffffffffffffffffffffffffffffffffffff1673ffffffffffffffffffffffffffffffffffffffff16815260200190815260200160002054905092915050565b60005481565b3373ffffffffffffffffffffffffffffffffffffffff166004600087815260200190815260200160002060000160009054906101000a900473ffffffffffffffffffffffffffffffffffffffff1673ffffffffffffffffffffffffffffffffffffffff16146118ad576040517f08c379a00000000000000000000000000000000000000000000000000000000081526004016118a490612d8a565b60405180910390fd5b82611b0c5780600160003373ffffffffffffffffffffffffffffffffffffffff1673ffffffffffffffffffffffffffffffffffffffff168152602001908152602001600020600201541015611937576040517f08c379a000000000000000000000000000000000000000000000000000000000815260040161192e90612df6565b60405180910390fd5b600460008681526020019081526020016000206003016040518060a0016040528086815260200183815260200185151581526020018473ffffffffffffffffffffffffffffffffffffffff168152602001600015158152509080600181540180825580915050600190039060005260206000209060030201600090919091909150600082015181600001556020820151816001015560408201518160020160006101000a81548160ff02191690831515021790555060608201518160020160016101000a81548173ffffffffffffffffffffffffffffffffffffffff021916908373ffffffffffffffffffffffffffffffffffffffff16021790555060808201518160020160156101000a81548160ff021916908315150217905550505080600160003373ffffffffffffffffffffffffffffffffffffffff1673ffffffffffffffffffffffffffffffffffffffff1681526020019081526020016000206002016000828254611aa79190612896565b9250508190555080600160003373ffffffffffffffffffffffffffffffffffffffff1673ffffffffffffffffffffffffffffffffffffffff1681526020019081526020016000206003016000828254611b009190611e93565b92505081905550611e19565b80600160003373ffffffffffffffffffffffffffffffffffffffff1673ffffffffffffffffffffffffffffffffffffffff16815260200190815260200160002060040160008473ffffffffffffffffffffffffffffffffffffffff1673ffffffffffffffffffffffffffffffffffffffff168152602001908152602001600020541015611bce576040517f08c379a0000000000000000000000000000000000000000000000000000000008152600401611bc590612e62565b60405180910390fd5b600460008681526020019081526020016000206003016040518060a0016040528086815260200183815260200185151581526020018473ffffffffffffffffffffffffffffffffffffffff168152602001600015158152509080600181540180825580915050600190039060005260206000209060030201600090919091909150600082015181600001556020820151816001015560408201518160020160006101000a81548160ff02191690831515021790555060608201518160020160016101000a81548173ffffffffffffffffffffffffffffffffffffffff021916908373ffffffffffffffffffffffffffffffffffffffff16021790555060808201518160020160156101000a81548160ff021916908315150217905550505080600160003373ffffffffffffffffffffffffffffffffffffffff1673ffffffffffffffffffffffffffffffffffffffff16815260200190815260200160002060040160008473ffffffffffffffffffffffffffffffffffffffff1673ffffffffffffffffffffffffffffffffffffffff1681526020019081526020016000206000828254611d7b9190612896565b9250508190555080600160003373ffffffffffffffffffffffffffffffffffffffff1673ffffffffffffffffffffffffffffffffffffffff16815260200190815260200160002060050160008473ffffffffffffffffffffffffffffffffffffffff1673ffffffffffffffffffffffffffffffffffffffff1681526020019081526020016000206000828254611e119190611e93565b925050819055505b847f99c090ea4e24c09baf74da49bf4100be7de555b972b1e6e4f495989738093d798583604051611e4b929190612e82565b60405180910390a25050505050565b6000819050919050565b7f4e487b7100000000000000000000000000000000000000000000000000000000600052601160045260246000fd5b6000611e9e82611e5a565b9150611ea983611e5a565b9250827fffffffffffffffffffffffffffffffffffffffffffffffffffffffffffffffff03821115611ede57611edd611e64565b5b828201905092915050565b600080fd5b611ef781611e5a565b8114611f0257600080fd5b50565b600081359050611f1481611eee565b92915050565b600060208284031215611f3057611f2f611ee9565b5b6000611f3e84828501611f05565b91505092915050565b600073ffffffffffffffffffffffffffffffffffffffff82169050919050565b6000611f7282611f47565b9050919050565b611f8281611f67565b82525050565b611f9181611e5a565b82525050565b600060ff82169050919050565b611fad81611f97565b82525050565b60008115159050919050565b611fc881611fb3565b82525050565b600060c082019050611fe36000830189611f79565b611ff06020830188611f79565b611ffd6040830187611f88565b61200a6060830186611fa4565b6120176080830185611fbf565b61202460a0830184611fbf565b979650505050505050565b600061203a82611f47565b9050919050565b61204a8161202f565b811461205557600080fd5b50565b60008135905061206781612041565b92915050565b6000806040838503121561208457612083611ee9565b5b600061209285828601612058565b92505060206120a385828601612058565b9150509250929050565b60006020820190506120c26000830184611f88565b92915050565b6000602082840312156120de576120dd611ee9565b5b60006120ec84828501612058565b91505092915050565b600081519050919050565b600082825260208201905092915050565b6000819050602082019050919050565b61212a81611e5a565b82525050565b61213981611fb3565b82525050565b6121488161202f565b82525050565b60a0820160008201516121646000850182612121565b5060208201516121776020850182612121565b50604082015161218a6040850182612130565b50606082015161219d606085018261213f565b5060808201516121b06080850182612130565b50505050565b60006121c2838361214e565b60a08301905092915050565b6000602082019050919050565b60006121e6826120f5565b6121f08185612100565b93506121fb83612111565b8060005b8381101561222c57815161221388826121b6565b975061221e836121ce565b9250506001810190506121ff565b5085935050505092915050565b6000602082019050818103600083015261225381846121db565b905092915050565b60006020820190506122706000830184611fa4565b92915050565b61227f81611f97565b811461228a57600080fd5b50565b60008135905061229c81612276565b92915050565b600080604083850312156122b9576122b8611ee9565b5b60006122c785828601611f05565b92505060206122d88582860161228d565b9150509250929050565b600060a0820190506122f76000830188611f88565b6123046020830187611fbf565b6123116040830186611fbf565b61231e6060830185611f88565b61232b6080830184611f88565b9695505050505050565b600060208201905061234a6000830184611f79565b92915050565b6000806040838503121561236757612366611ee9565b5b600061237585828601611f05565b925050602061238685828601612058565b9150509250929050565b6000819050919050565b6123a381612390565b81146123ae57600080fd5b50565b6000813590506123c08161239a565b92915050565b600080604083850312156123dd576123dc611ee9565b5b60006123eb858286016123b1565b92505060206123fc85828601612058565b9150509250929050565b6000806040838503121561241d5761241c611ee9565b5b600061242b85828601612058565b925050602061243c8582860161228d565b9150509250929050565b61244f81611fb3565b811461245a57600080fd5b50565b60008135905061246c81612446565b92915050565b600080600080600060a0868803121561248e5761248d611ee9565b5b600061249c88828901611f05565b95505060206124ad88828901611f05565b94505060406124be8882890161245d565b93505060606124cf88828901612058565b92505060806124e088828901611f05565b9150509295509295909350565b600082825260208201905092915050565b7f546869732061646472657373206973207265676973746572656420617320612060008201527f636c69656e740000000000000000000000000000000000000000000000000000602082015250565b600061255a6026836124ed565b9150612565826124fe565b604082019050919050565b600060208201905081810360008301526125898161254d565b9050919050565b600061259b82611e5a565b91507fffffffffffffffffffffffffffffffffffffffffffffffffffffffffffffffff8214156125ce576125cd611e64565b5b600182019050919050565b7f546869732061646472657373206973207265676973746572656420617320612060008201527f667265656c616e63657200000000000000000000000000000000000000000000602082015250565b6000612635602a836124ed565b9150612640826125d9565b604082019050919050565b6000602082019050818103600083015261266481612628565b9050919050565b7f4f6e6c79207468652070726f6a656374206f776e65722063616e2063616c6c2060008201527f746869732066756e6374696f6e00000000000000000000000000000000000000602082015250565b60006126c7602d836124ed565b91506126d28261266b565b604082019050919050565b600060208201905081810360008301526126f6816126ba565b9050919050565b7f546869732070726f6a65637420686173206265656e20636f6d706c6574656400600082015250565b6000612733601f836124ed565b915061273e826126fd565b602082019050919050565b6000602082019050818103600083015261276281612726565b9050919050565b7f54686973206d696c6573746f6e6520646f6573206e6f74206578697374000000600082015250565b600061279f601d836124ed565b91506127aa82612769565b602082019050919050565b600060208201905081810360008301526127ce81612792565b9050919050565b7f4e487b7100000000000000000000000000000000000000000000000000000000600052603260045260246000fd5b7f54686973206d696c6573746f6e6520686173206265656e206d61726b6564206160008201527f7320636f6d706c65746564000000000000000000000000000000000000000000602082015250565b6000612860602b836124ed565b915061286b82612804565b604082019050919050565b6000602082019050818103600083015261288f81612853565b9050919050565b60006128a182611e5a565b91506128ac83611e5a565b9250828210156128bf576128be611e64565b5b828203905092915050565b6000819050919050565b60006128ef6128ea6128e584611f47565b6128ca565b611f47565b9050919050565b6000612901826128d4565b9050919050565b6000612913826128f6565b9050919050565b61292381612908565b82525050565b600060408201905061293e600083018561291a565b61294b6020830184611f88565b9392505050565b60008151905061296181612446565b92915050565b60006020828403121561297d5761297c611ee9565b5b600061298b84828501612952565b91505092915050565b600061299f82611f97565b915060ff8214156129b3576129b2611e64565b5b600182019050919050565b6129c78161202f565b82525050565b60006040820190506129e260008301856129be565b6129ef60208301846129be565b9392505050565b600081519050612a0581611eee565b92915050565b600060208284031215612a2157612a20611ee9565b5b6000612a2f848285016129f6565b91505092915050565b7f5468657265206973206e6f20616d6f756e7420617070726f76656420746f207360008201527f70656e6400000000000000000000000000000000000000000000000000000000602082015250565b6000612a946024836124ed565b9150612a9f82612a38565b604082019050919050565b60006020820190508181036000830152612ac381612a87565b9050919050565b6000602082019050612adf60008301846129be565b92915050565b6000606082019050612afa60008301866129be565b612b0760208301856129be565b612b146040830184611f88565b949350505050565b7f596f752063616e6e6f7420776f726b20666f7220796f757273656c6600000000600082015250565b6000612b52601c836124ed565b9150612b5d82612b1c565b602082019050919050565b60006020820190508181036000830152612b8181612b45565b9050919050565b7f5468697320667265656c616e63657220646f6573206e6f742065786973740000600082015250565b6000612bbe601e836124ed565b9150612bc982612b88565b602082019050919050565b60006020820190508181036000830152612bed81612bb1565b9050919050565b7f596f7520617265206e6f7420726567697374657265642061732061206672656560008201527f6c616e6365720000000000000000000000000000000000000000000000000000602082015250565b6000612c506026836124ed565b9150612c5b82612bf4565b604082019050919050565b60006020820190508181036000830152612c7f81612c43565b9050919050565b7f596f7520617265206e6f742074686520667265656c616e63657220666f72207460008201527f6869732070726f6a656374000000000000000000000000000000000000000000602082015250565b6000612ce2602b836124ed565b9150612ced82612c86565b604082019050919050565b60006020820190508181036000830152612d1181612cd5565b9050919050565b7f596f7520617265206e6f7420746865206f776e6572206f66207468697320707260008201527f6f6a656374000000000000000000000000000000000000000000000000000000602082015250565b6000612d746025836124ed565b9150612d7f82612d18565b604082019050919050565b60006020820190508181036000830152612da381612d67565b9050919050565b7f6e6f7420656e6f7567682065746820696e207661756c74000000000000000000600082015250565b6000612de06017836124ed565b9150612deb82612daa565b602082019050919050565b60006020820190508181036000830152612e0f81612dd3565b9050919050565b7f6e6f7420656e6f75676820657263323020746f6b656e20696e207661756c7400600082015250565b6000612e4c601f836124ed565b9150612e5782612e16565b602082019050919050565b60006020820190508181036000830152612e7b81612e3f565b9050919050565b6000604082019050612e976000830185611f88565b612ea46020830184611f88565b939250505056fea26469706673582212203c26df52b7c3576bbf360c1b962ede257ef3a7c0cc7763bc3b377f94916174e264736f6c63430008090033",
  "linkReferences": {},
  "deployedLinkReferences": {}
}