{
  "_format": "hh-sol-artifact-1",
  "contractName": "Deelance",
  "sourceName": "contracts/Deelance.sol",
  "abi": [
    {
      "anonymous": false,
      "inputs": [
        {
          "indexed": false,
          "internalType": "uint256",
          "name": "deadline",
          "type": "uint256"
        },
        {
          "indexed": false,
          "internalType": "uint256",
          "name": "value",
          "type": "uint256"
        }
      ],
      "name": "MilestoneAdded",
      "type": "event"
    },
    {
      "anonymous": false,
      "inputs": [
        {
          "indexed": true,
          "internalType": "bytes32",
          "name": "gig_orderId",
          "type": "bytes32"
        },
        {
          "indexed": false,
          "internalType": "uint256",
          "name": "id",
          "type": "uint256"
        }
      ],
      "name": "StartedProject",
      "type": "event"
    },
    {
      "inputs": [
        {
          "internalType": "uint256",
          "name": "projectId",
          "type": "uint256"
        },
        {
          "internalType": "uint256",
          "name": "deadline",
          "type": "uint256"
        },
        {
          "internalType": "bool",
          "name": "isERC",
          "type": "bool"
        },
        {
          "internalType": "address",
          "name": "_token",
          "type": "address"
        },
        {
          "internalType": "uint256",
          "name": "_amount",
          "type": "uint256"
        },
        {
          "internalType": "uint256",
          "name": "_ethAmount",
          "type": "uint256"
        }
      ],
      "name": "addMilestone",
      "outputs": [],
      "stateMutability": "payable",
      "type": "function"
    },
    {
      "inputs": [
        {
          "internalType": "address",
          "name": "bank",
          "type": "address"
        },
        {
          "internalType": "uint8",
          "name": "percentage",
          "type": "uint8"
        }
      ],
      "name": "construct",
      "outputs": [],
      "stateMutability": "nonpayable",
      "type": "function"
    },
    {
      "inputs": [],
      "name": "feeBank",
      "outputs": [
        {
          "internalType": "address payable",
          "name": "",
          "type": "address"
        }
      ],
      "stateMutability": "view",
      "type": "function"
    },
    {
      "inputs": [],
      "name": "feePercent",
      "outputs": [
        {
          "internalType": "uint8",
          "name": "",
          "type": "uint8"
        }
      ],
      "stateMutability": "view",
      "type": "function"
    },
    {
      "inputs": [
        {
          "internalType": "uint256",
          "name": "_amount",
          "type": "uint256"
        },
        {
          "internalType": "address",
          "name": "_token",
          "type": "address"
        }
      ],
      "name": "fundWithERC20",
      "outputs": [],
      "stateMutability": "nonpayable",
      "type": "function"
    },
    {
      "inputs": [
        {
          "internalType": "address",
          "name": "depositor",
          "type": "address"
        },
        {
          "internalType": "address",
          "name": "tokenAddress",
          "type": "address"
        }
      ],
      "name": "getERC20InVault",
      "outputs": [
        {
          "internalType": "uint256",
          "name": "",
          "type": "uint256"
        }
      ],
      "stateMutability": "view",
      "type": "function"
    },
    {
      "inputs": [
        {
          "internalType": "address",
          "name": "depositor",
          "type": "address"
        },
        {
          "internalType": "address",
          "name": "tokenAddress",
          "type": "address"
        }
      ],
      "name": "getERC20OutOfVault",
      "outputs": [
        {
          "internalType": "uint256",
          "name": "",
          "type": "uint256"
        }
      ],
      "stateMutability": "view",
      "type": "function"
    },
    {
      "inputs": [
        {
          "internalType": "address",
          "name": "depositor",
          "type": "address"
        }
      ],
      "name": "getEthInVault",
      "outputs": [
        {
          "internalType": "uint256",
          "name": "",
          "type": "uint256"
        }
      ],
      "stateMutability": "view",
      "type": "function"
    },
    {
      "inputs": [
        {
          "internalType": "address",
          "name": "depositor",
          "type": "address"
        }
      ],
      "name": "getEthOutOfVault",
      "outputs": [
        {
          "internalType": "uint256",
          "name": "",
          "type": "uint256"
        }
      ],
      "stateMutability": "view",
      "type": "function"
    },
    {
      "inputs": [
        {
          "internalType": "uint256",
          "name": "projectId",
          "type": "uint256"
        }
      ],
      "name": "getMilestones",
      "outputs": [
        {
          "components": [
            {
              "internalType": "uint256",
              "name": "deadline",
              "type": "uint256"
            },
            {
              "internalType": "uint256",
              "name": "payment",
              "type": "uint256"
            },
            {
              "internalType": "bool",
              "name": "isERC",
              "type": "bool"
            },
            {
              "internalType": "address",
              "name": "token",
              "type": "address"
            },
            {
              "internalType": "bool",
              "name": "completed",
              "type": "bool"
            }
          ],
          "internalType": "struct Deelance.Milestone[]",
          "name": "milestone",
          "type": "tuple[]"
        }
      ],
      "stateMutability": "view",
      "type": "function"
    },
    {
      "inputs": [
        {
          "internalType": "uint256",
          "name": "projectId",
          "type": "uint256"
        }
      ],
      "name": "joinProject",
      "outputs": [],
      "stateMutability": "nonpayable",
      "type": "function"
    },
    {
      "inputs": [
        {
          "internalType": "uint256",
          "name": "projectId",
          "type": "uint256"
        },
        {
          "internalType": "uint8",
          "name": "milestoneId",
          "type": "uint8"
        }
      ],
      "name": "milestoneCompleted",
      "outputs": [],
      "stateMutability": "nonpayable",
      "type": "function"
    },
    {
      "inputs": [
        {
          "internalType": "uint256",
          "name": "",
          "type": "uint256"
        }
      ],
      "name": "projects",
      "outputs": [
        {
          "internalType": "address payable",
          "name": "client",
          "type": "address"
        },
        {
          "internalType": "address payable",
          "name": "freelancer",
          "type": "address"
        },
        {
          "internalType": "uint256",
          "name": "budget",
          "type": "uint256"
        },
        {
          "internalType": "uint8",
          "name": "completedMilestones",
          "type": "uint8"
        },
        {
          "internalType": "bool",
          "name": "completed",
          "type": "bool"
        },
        {
          "internalType": "bool",
          "name": "approved",
          "type": "bool"
        }
      ],
      "stateMutability": "view",
      "type": "function"
    },
    {
      "inputs": [],
      "name": "projectsId",
      "outputs": [
        {
          "internalType": "uint256",
          "name": "",
          "type": "uint256"
        }
      ],
      "stateMutability": "view",
      "type": "function"
    },
    {
      "inputs": [],
      "name": "registerClient",
      "outputs": [],
      "stateMutability": "nonpayable",
      "type": "function"
    },
    {
      "inputs": [],
      "name": "registerFreelancer",
      "outputs": [],
      "stateMutability": "nonpayable",
      "type": "function"
    },
    {
      "inputs": [
        {
          "internalType": "bytes32",
          "name": "gig_orderId",
          "type": "bytes32"
        },
        {
          "internalType": "address",
          "name": "freelancerAddress",
          "type": "address"
        }
      ],
      "name": "startProject",
      "outputs": [],
      "stateMutability": "nonpayable",
      "type": "function"
    },
    {
      "inputs": [
        {
          "internalType": "address",
          "name": "",
          "type": "address"
        }
      ],
      "name": "users",
      "outputs": [
        {
          "internalType": "uint256",
          "name": "userId",
          "type": "uint256"
        },
        {
          "internalType": "bool",
          "name": "isClient",
          "type": "bool"
        },
        {
          "internalType": "bool",
          "name": "isFreelancer",
          "type": "bool"
        },
        {
          "internalType": "uint256",
          "name": "ethInVault",
          "type": "uint256"
        },
        {
          "internalType": "uint256",
          "name": "ethOutOfVault",
          "type": "uint256"
        }
      ],
      "stateMutability": "view",
      "type": "function"
    },
    {
      "inputs": [],
      "name": "usersId",
      "outputs": [
        {
          "internalType": "uint256",
          "name": "",
          "type": "uint256"
        }
      ],
      "stateMutability": "view",
      "type": "function"
    },
    {
      "stateMutability": "payable",
      "type": "receive"
    }
  ],
  "bytecode": "0x608060405234801561001057600080fd5b50612e91806100206000396000f3fe6080604052600436106101185760003560e01c8063851266fa116100a0578063bfb457b611610064578063bfb457b614610417578063d81b423a14610440578063df98e5f914610469578063e22cf44714610492578063e6790928146104cf5761017e565b8063851266fa1461031c578063a87430ba14610345578063af15d78614610386578063b61ead0d146103b1578063be0f431e146103ee5761017e565b806342c549c0116100e757806342c549c01461025b5780636198f297146102985780636d9fb287146102c35780637721710e146102da5780637fd6f15c146102f15761017e565b806301af34ff14610183578063107046bd1461019f578063254de6bb146101e15780633f594a0d1461021e5761017e565b3661017e576000600160003373ffffffffffffffffffffffffffffffffffffffff1673ffffffffffffffffffffffffffffffffffffffff1681526020019081526020016000209050348160020160008282546101749190611e5a565b9250508190555050005b600080fd5b61019d60048036038101906101989190611f77565b6104fa565b005b3480156101ab57600080fd5b506101c660048036038101906101c19190612004565b610b12565b6040516101d89695949392919061208c565b60405180910390f35b3480156101ed57600080fd5b50610208600480360381019061020391906120ed565b610bb5565b604051610215919061212d565b60405180910390f35b34801561022a57600080fd5b5061024560048036038101906102409190612148565b610c3f565b604051610252919061212d565b60405180910390f35b34801561026757600080fd5b50610282600480360381019061027d9190612004565b610c8b565b60405161028f91906122b9565b60405180910390f35b3480156102a457600080fd5b506102ad610da0565b6040516102ba919061212d565b60405180910390f35b3480156102cf57600080fd5b506102d8610da6565b005b3480156102e657600080fd5b506102ef610eeb565b005b3480156102fd57600080fd5b50610306611030565b60405161031391906122db565b60405180910390f35b34801561032857600080fd5b50610343600480360381019061033e9190612322565b611043565b005b34801561035157600080fd5b5061036c60048036038101906103679190612148565b611549565b60405161037d959493929190612362565b60405180910390f35b34801561039257600080fd5b5061039b611599565b6040516103a891906123b5565b60405180910390f35b3480156103bd57600080fd5b506103d860048036038101906103d39190612148565b6115bf565b6040516103e5919061212d565b60405180910390f35b3480156103fa57600080fd5b50610415600480360381019061041091906123d0565b61160b565b005b34801561042357600080fd5b5061043e60048036038101906104399190612446565b611937565b005b34801561044c57600080fd5b5061046760048036038101906104629190612486565b611bcc565b005b34801561047557600080fd5b50610490600480360381019061048b9190612004565b611c2c565b005b34801561049e57600080fd5b506104b960048036038101906104b491906120ed565b611d91565b6040516104c6919061212d565b60405180910390f35b3480156104db57600080fd5b506104e4611e1b565b6040516104f1919061212d565b60405180910390f35b3373ffffffffffffffffffffffffffffffffffffffff166004600088815260200190815260200160002060000160009054906101000a900473ffffffffffffffffffffffffffffffffffffffff1673ffffffffffffffffffffffffffffffffffffffff161461059e576040517f08c379a000000000000000000000000000000000000000000000000000000000815260040161059590612549565b60405180910390fd5b836107fd5780600160003373ffffffffffffffffffffffffffffffffffffffff1673ffffffffffffffffffffffffffffffffffffffff168152602001908152602001600020600201541015610628576040517f08c379a000000000000000000000000000000000000000000000000000000000815260040161061f906125b5565b60405180910390fd5b600460008781526020019081526020016000206003016040518060a0016040528087815260200183815260200186151581526020018573ffffffffffffffffffffffffffffffffffffffff168152602001600015158152509080600181540180825580915050600190039060005260206000209060030201600090919091909150600082015181600001556020820151816001015560408201518160020160006101000a81548160ff02191690831515021790555060608201518160020160016101000a81548173ffffffffffffffffffffffffffffffffffffffff021916908373ffffffffffffffffffffffffffffffffffffffff16021790555060808201518160020160156101000a81548160ff021916908315150217905550505080600160003373ffffffffffffffffffffffffffffffffffffffff1673ffffffffffffffffffffffffffffffffffffffff168152602001908152602001600020600201600082825461079891906125d5565b9250508190555080600160003373ffffffffffffffffffffffffffffffffffffffff1673ffffffffffffffffffffffffffffffffffffffff16815260200190815260200160002060030160008282546107f19190611e5a565b92505081905550610b0a565b81600160003373ffffffffffffffffffffffffffffffffffffffff1673ffffffffffffffffffffffffffffffffffffffff16815260200190815260200160002060040160008573ffffffffffffffffffffffffffffffffffffffff1673ffffffffffffffffffffffffffffffffffffffff1681526020019081526020016000205410156108bf576040517f08c379a00000000000000000000000000000000000000000000000000000000081526004016108b690612655565b60405180910390fd5b600460008781526020019081526020016000206003016040518060a0016040528087815260200184815260200186151581526020018573ffffffffffffffffffffffffffffffffffffffff168152602001600015158152509080600181540180825580915050600190039060005260206000209060030201600090919091909150600082015181600001556020820151816001015560408201518160020160006101000a81548160ff02191690831515021790555060608201518160020160016101000a81548173ffffffffffffffffffffffffffffffffffffffff021916908373ffffffffffffffffffffffffffffffffffffffff16021790555060808201518160020160156101000a81548160ff021916908315150217905550505081600160003373ffffffffffffffffffffffffffffffffffffffff1673ffffffffffffffffffffffffffffffffffffffff16815260200190815260200160002060040160008573ffffffffffffffffffffffffffffffffffffffff1673ffffffffffffffffffffffffffffffffffffffff1681526020019081526020016000206000828254610a6c91906125d5565b9250508190555081600160003373ffffffffffffffffffffffffffffffffffffffff1673ffffffffffffffffffffffffffffffffffffffff16815260200190815260200160002060050160008573ffffffffffffffffffffffffffffffffffffffff1673ffffffffffffffffffffffffffffffffffffffff1681526020019081526020016000206000828254610b029190611e5a565b925050819055505b505050505050565b60046020528060005260406000206000915090508060000160009054906101000a900473ffffffffffffffffffffffffffffffffffffffff16908060010160009054906101000a900473ffffffffffffffffffffffffffffffffffffffff16908060020154908060040160009054906101000a900460ff16908060040160019054906101000a900460ff16908060040160029054906101000a900460ff16905086565b6000600160008473ffffffffffffffffffffffffffffffffffffffff1673ffffffffffffffffffffffffffffffffffffffff16815260200190815260200160002060040160008373ffffffffffffffffffffffffffffffffffffffff1673ffffffffffffffffffffffffffffffffffffffff16815260200190815260200160002054905092915050565b6000600160008373ffffffffffffffffffffffffffffffffffffffff1673ffffffffffffffffffffffffffffffffffffffff168152602001908152602001600020600301549050919050565b606060046000838152602001908152602001600020600301805480602002602001604051908101604052809291908181526020016000905b82821015610d9557838290600052602060002090600302016040518060a001604052908160008201548152602001600182015481526020016002820160009054906101000a900460ff161515151581526020016002820160019054906101000a900473ffffffffffffffffffffffffffffffffffffffff1673ffffffffffffffffffffffffffffffffffffffff1673ffffffffffffffffffffffffffffffffffffffff1681526020016002820160159054906101000a900460ff16151515158152505081526020019060010190610cc3565b505050509050919050565b60035481565b600160003373ffffffffffffffffffffffffffffffffffffffff1673ffffffffffffffffffffffffffffffffffffffff16815260200190815260200160002060010160009054906101000a900460ff1615610e36576040517f08c379a0000000000000000000000000000000000000000000000000000000008152600401610e2d906126e7565b60405180910390fd5b6000600160003373ffffffffffffffffffffffffffffffffffffffff1673ffffffffffffffffffffffffffffffffffffffff16815260200190815260200160002090506000816000015414610ea85760018160010160006101000a81548160ff02191690831515021790555050610ee9565b600080815480929190610eba90612707565b9190505550600054816000018190555060018160010160006101000a81548160ff021916908315150217905550505b565b600160003373ffffffffffffffffffffffffffffffffffffffff1673ffffffffffffffffffffffffffffffffffffffff16815260200190815260200160002060010160019054906101000a900460ff1615610f7b576040517f08c379a0000000000000000000000000000000000000000000000000000000008152600401610f72906127c2565b60405180910390fd5b6000600160003373ffffffffffffffffffffffffffffffffffffffff1673ffffffffffffffffffffffffffffffffffffffff16815260200190815260200160002090506000816000015414610fed5760018160010160016101000a81548160ff0219169083151502179055505061102e565b600080815480929190610fff90612707565b9190505550600054816000018190555060018160010160016101000a81548160ff021916908315150217905550505b565b600260149054906101000a900460ff1681565b3373ffffffffffffffffffffffffffffffffffffffff166004600084815260200190815260200160002060000160009054906101000a900473ffffffffffffffffffffffffffffffffffffffff1673ffffffffffffffffffffffffffffffffffffffff16146110e7576040517f08c379a00000000000000000000000000000000000000000000000000000000081526004016110de90612854565b60405180910390fd5b6004600083815260200190815260200160002060040160019054906101000a900460ff161561114b576040517f08c379a0000000000000000000000000000000000000000000000000000000008152600401611142906128c0565b60405180910390fd5b600060046000848152602001908152602001600020905080600301805490508260ff16106111ae576040517f08c379a00000000000000000000000000000000000000000000000000000000081526004016111a59061292c565b60405180910390fd5b6000816003018360ff16815481106111c9576111c861294c565b5b906000526020600020906003020190508060020160159054906101000a900460ff161561122b576040517f08c379a0000000000000000000000000000000000000000000000000000000008152600401611222906129ed565b60405180910390fd5b8060020160009054906101000a900460ff16611312578160010160009054906101000a900473ffffffffffffffffffffffffffffffffffffffff1673ffffffffffffffffffffffffffffffffffffffff166108fc82600101549081150290604051600060405180830381858888f193505050501580156112af573d6000803e3d6000fd5b508060010154600160003373ffffffffffffffffffffffffffffffffffffffff1673ffffffffffffffffffffffffffffffffffffffff168152602001908152602001600020600301600082825461130691906125d5565b925050819055506114ab565b8060020160019054906101000a900473ffffffffffffffffffffffffffffffffffffffff1673ffffffffffffffffffffffffffffffffffffffff1663a9059cbb8360010160009054906101000a900473ffffffffffffffffffffffffffffffffffffffff1683600101546040518363ffffffff1660e01b8152600401611399929190612a6c565b602060405180830381600087803b1580156113b357600080fd5b505af11580156113c7573d6000803e3d6000fd5b505050506040513d601f19601f820116820180604052508101906113eb9190612aaa565b508060010154600160003373ffffffffffffffffffffffffffffffffffffffff1673ffffffffffffffffffffffffffffffffffffffff16815260200190815260200160002060050160008360020160019054906101000a900473ffffffffffffffffffffffffffffffffffffffff1673ffffffffffffffffffffffffffffffffffffffff1673ffffffffffffffffffffffffffffffffffffffff16815260200190815260200160002060008282546114a391906125d5565b925050819055505b60018160020160156101000a81548160ff02191690831515021790555081600401600081819054906101000a900460ff16809291906114e990612ad7565b91906101000a81548160ff021916908360ff1602179055505081600301805490508260040160009054906101000a900460ff1660ff1614156115435760018260040160016101000a81548160ff0219169083151502179055505b50505050565b60016020528060005260406000206000915090508060000154908060010160009054906101000a900460ff16908060010160019054906101000a900460ff16908060020154908060030154905085565b600260009054906101000a900473ffffffffffffffffffffffffffffffffffffffff1681565b6000600160008373ffffffffffffffffffffffffffffffffffffffff1673ffffffffffffffffffffffffffffffffffffffff168152602001908152602001600020600201549050919050565b6000819050828173ffffffffffffffffffffffffffffffffffffffff1663dd62ed3e33306040518363ffffffff1660e01b815260040161164c929190612b10565b60206040518083038186803b15801561166457600080fd5b505afa158015611678573d6000803e3d6000fd5b505050506040513d601f19601f8201168201806040525081019061169c9190612b4e565b10156116dd576040517f08c379a00000000000000000000000000000000000000000000000000000000081526004016116d490612bed565b60405180910390fd5b60008173ffffffffffffffffffffffffffffffffffffffff166370a08231306040518263ffffffff1660e01b81526004016117189190612c0d565b60206040518083038186803b15801561173057600080fd5b505afa158015611744573d6000803e3d6000fd5b505050506040513d601f19601f820116820180604052508101906117689190612b4e565b90508173ffffffffffffffffffffffffffffffffffffffff166323b872dd3330876040518463ffffffff1660e01b81526004016117a793929190612c28565b602060405180830381600087803b1580156117c157600080fd5b505af11580156117d5573d6000803e3d6000fd5b505050506040513d601f19601f820116820180604052508101906117f99190612aaa565b5083818373ffffffffffffffffffffffffffffffffffffffff166370a08231306040518263ffffffff1660e01b81526004016118359190612c0d565b60206040518083038186803b15801561184d57600080fd5b505afa158015611861573d6000803e3d6000fd5b505050506040513d601f19601f820116820180604052508101906118859190612b4e565b61188f91906125d5565b10611931576000600160003373ffffffffffffffffffffffffffffffffffffffff1673ffffffffffffffffffffffffffffffffffffffff1681526020019081526020016000209050848160040160008673ffffffffffffffffffffffffffffffffffffffff1673ffffffffffffffffffffffffffffffffffffffff16815260200190815260200160002060008282546119289190611e5a565b92505081905550505b50505050565b8073ffffffffffffffffffffffffffffffffffffffff163373ffffffffffffffffffffffffffffffffffffffff1614156119a6576040517f08c379a000000000000000000000000000000000000000000000000000000000815260040161199d90612cab565b60405180910390fd5b600160003373ffffffffffffffffffffffffffffffffffffffff1673ffffffffffffffffffffffffffffffffffffffff16815260200190815260200160002060010160009054906101000a900460ff16611a0357611a02610da6565b5b600160008273ffffffffffffffffffffffffffffffffffffffff1673ffffffffffffffffffffffffffffffffffffffff16815260200190815260200160002060010160019054906101000a900460ff16611a92576040517f08c379a0000000000000000000000000000000000000000000000000000000008152600401611a8990612d17565b60405180910390fd5b60036000815480929190611aa590612707565b919050555060006004600060035481526020019081526020016000209050338160000160006101000a81548173ffffffffffffffffffffffffffffffffffffffff021916908373ffffffffffffffffffffffffffffffffffffffff160217905550818160010160006101000a81548173ffffffffffffffffffffffffffffffffffffffff021916908373ffffffffffffffffffffffffffffffffffffffff1602179055506000816002018190555060008160040160016101000a81548160ff02191690831515021790555060008160040160026101000a81548160ff021916908315150217905550827f44815bdb52027a50a2f322e2ac3e126a52f96567b6a82aa6f4e0502e0d858c50600354604051611bbf919061212d565b60405180910390a2505050565b81600260006101000a81548173ffffffffffffffffffffffffffffffffffffffff021916908373ffffffffffffffffffffffffffffffffffffffff16021790555080600260146101000a81548160ff021916908360ff1602179055505050565b600160003373ffffffffffffffffffffffffffffffffffffffff1673ffffffffffffffffffffffffffffffffffffffff16815260200190815260200160002060010160019054906101000a900460ff16611cbb576040517f08c379a0000000000000000000000000000000000000000000000000000000008152600401611cb290612da9565b60405180910390fd5b3373ffffffffffffffffffffffffffffffffffffffff166004600083815260200190815260200160002060010160009054906101000a900473ffffffffffffffffffffffffffffffffffffffff1673ffffffffffffffffffffffffffffffffffffffff1614611d5f576040517f08c379a0000000000000000000000000000000000000000000000000000000008152600401611d5690612e3b565b60405180910390fd5b60016004600083815260200190815260200160002060040160026101000a81548160ff02191690831515021790555050565b6000600160008473ffffffffffffffffffffffffffffffffffffffff1673ffffffffffffffffffffffffffffffffffffffff16815260200190815260200160002060050160008373ffffffffffffffffffffffffffffffffffffffff1673ffffffffffffffffffffffffffffffffffffffff16815260200190815260200160002054905092915050565b60005481565b6000819050919050565b7f4e487b7100000000000000000000000000000000000000000000000000000000600052601160045260246000fd5b6000611e6582611e21565b9150611e7083611e21565b9250827fffffffffffffffffffffffffffffffffffffffffffffffffffffffffffffffff03821115611ea557611ea4611e2b565b5b828201905092915050565b600080fd5b611ebe81611e21565b8114611ec957600080fd5b50565b600081359050611edb81611eb5565b92915050565b60008115159050919050565b611ef681611ee1565b8114611f0157600080fd5b50565b600081359050611f1381611eed565b92915050565b600073ffffffffffffffffffffffffffffffffffffffff82169050919050565b6000611f4482611f19565b9050919050565b611f5481611f39565b8114611f5f57600080fd5b50565b600081359050611f7181611f4b565b92915050565b60008060008060008060c08789031215611f9457611f93611eb0565b5b6000611fa289828a01611ecc565b9650506020611fb389828a01611ecc565b9550506040611fc489828a01611f04565b9450506060611fd589828a01611f62565b9350506080611fe689828a01611ecc565b92505060a0611ff789828a01611ecc565b9150509295509295509295565b60006020828403121561201a57612019611eb0565b5b600061202884828501611ecc565b91505092915050565b600061203c82611f19565b9050919050565b61204c81612031565b82525050565b61205b81611e21565b82525050565b600060ff82169050919050565b61207781612061565b82525050565b61208681611ee1565b82525050565b600060c0820190506120a16000830189612043565b6120ae6020830188612043565b6120bb6040830187612052565b6120c8606083018661206e565b6120d5608083018561207d565b6120e260a083018461207d565b979650505050505050565b6000806040838503121561210457612103611eb0565b5b600061211285828601611f62565b925050602061212385828601611f62565b9150509250929050565b60006020820190506121426000830184612052565b92915050565b60006020828403121561215e5761215d611eb0565b5b600061216c84828501611f62565b91505092915050565b600081519050919050565b600082825260208201905092915050565b6000819050602082019050919050565b6121aa81611e21565b82525050565b6121b981611ee1565b82525050565b6121c881611f39565b82525050565b60a0820160008201516121e460008501826121a1565b5060208201516121f760208501826121a1565b50604082015161220a60408501826121b0565b50606082015161221d60608501826121bf565b50608082015161223060808501826121b0565b50505050565b600061224283836121ce565b60a08301905092915050565b6000602082019050919050565b600061226682612175565b6122708185612180565b935061227b83612191565b8060005b838110156122ac5781516122938882612236565b975061229e8361224e565b92505060018101905061227f565b5085935050505092915050565b600060208201905081810360008301526122d3818461225b565b905092915050565b60006020820190506122f0600083018461206e565b92915050565b6122ff81612061565b811461230a57600080fd5b50565b60008135905061231c816122f6565b92915050565b6000806040838503121561233957612338611eb0565b5b600061234785828601611ecc565b92505060206123588582860161230d565b9150509250929050565b600060a0820190506123776000830188612052565b612384602083018761207d565b612391604083018661207d565b61239e6060830185612052565b6123ab6080830184612052565b9695505050505050565b60006020820190506123ca6000830184612043565b92915050565b600080604083850312156123e7576123e6611eb0565b5b60006123f585828601611ecc565b925050602061240685828601611f62565b9150509250929050565b6000819050919050565b61242381612410565b811461242e57600080fd5b50565b6000813590506124408161241a565b92915050565b6000806040838503121561245d5761245c611eb0565b5b600061246b85828601612431565b925050602061247c85828601611f62565b9150509250929050565b6000806040838503121561249d5761249c611eb0565b5b60006124ab85828601611f62565b92505060206124bc8582860161230d565b9150509250929050565b600082825260208201905092915050565b7f596f7520617265206e6f7420746865206f776e6572206f66207468697320707260008201527f6f6a656374000000000000000000000000000000000000000000000000000000602082015250565b60006125336025836124c6565b915061253e826124d7565b604082019050919050565b6000602082019050818103600083015261256281612526565b9050919050565b7f6e6f7420656e6f7567682065746820696e207661756c74000000000000000000600082015250565b600061259f6017836124c6565b91506125aa82612569565b602082019050919050565b600060208201905081810360008301526125ce81612592565b9050919050565b60006125e082611e21565b91506125eb83611e21565b9250828210156125fe576125fd611e2b565b5b828203905092915050565b7f6e6f7420656e6f75676820657263323020746f6b656e20696e207661756c7400600082015250565b600061263f601f836124c6565b915061264a82612609565b602082019050919050565b6000602082019050818103600083015261266e81612632565b9050919050565b7f546869732061646472657373206973207265676973746572656420617320612060008201527f636c69656e740000000000000000000000000000000000000000000000000000602082015250565b60006126d16026836124c6565b91506126dc82612675565b604082019050919050565b60006020820190508181036000830152612700816126c4565b9050919050565b600061271282611e21565b91507fffffffffffffffffffffffffffffffffffffffffffffffffffffffffffffffff82141561274557612744611e2b565b5b600182019050919050565b7f546869732061646472657373206973207265676973746572656420617320612060008201527f667265656c616e63657200000000000000000000000000000000000000000000602082015250565b60006127ac602a836124c6565b91506127b782612750565b604082019050919050565b600060208201905081810360008301526127db8161279f565b9050919050565b7f4f6e6c79207468652070726f6a656374206f776e65722063616e2063616c6c2060008201527f746869732066756e6374696f6e00000000000000000000000000000000000000602082015250565b600061283e602d836124c6565b9150612849826127e2565b604082019050919050565b6000602082019050818103600083015261286d81612831565b9050919050565b7f546869732070726f6a65637420686173206265656e20636f6d706c6574656400600082015250565b60006128aa601f836124c6565b91506128b582612874565b602082019050919050565b600060208201905081810360008301526128d98161289d565b9050919050565b7f54686973206d696c6573746f6e6520646f6573206e6f74206578697374000000600082015250565b6000612916601d836124c6565b9150612921826128e0565b602082019050919050565b6000602082019050818103600083015261294581612909565b9050919050565b7f4e487b7100000000000000000000000000000000000000000000000000000000600052603260045260246000fd5b7f54686973206d696c6573746f6e6520686173206265656e206d61726b6564206160008201527f7320636f6d706c65746564000000000000000000000000000000000000000000602082015250565b60006129d7602b836124c6565b91506129e28261297b565b604082019050919050565b60006020820190508181036000830152612a06816129ca565b9050919050565b6000819050919050565b6000612a32612a2d612a2884611f19565b612a0d565b611f19565b9050919050565b6000612a4482612a17565b9050919050565b6000612a5682612a39565b9050919050565b612a6681612a4b565b82525050565b6000604082019050612a816000830185612a5d565b612a8e6020830184612052565b9392505050565b600081519050612aa481611eed565b92915050565b600060208284031215612ac057612abf611eb0565b5b6000612ace84828501612a95565b91505092915050565b6000612ae282612061565b915060ff821415612af657612af5611e2b565b5b600182019050919050565b612b0a81611f39565b82525050565b6000604082019050612b256000830185612b01565b612b326020830184612b01565b9392505050565b600081519050612b4881611eb5565b92915050565b600060208284031215612b6457612b63611eb0565b5b6000612b7284828501612b39565b91505092915050565b7f5468657265206973206e6f20616d6f756e7420617070726f76656420746f207360008201527f70656e6400000000000000000000000000000000000000000000000000000000602082015250565b6000612bd76024836124c6565b9150612be282612b7b565b604082019050919050565b60006020820190508181036000830152612c0681612bca565b9050919050565b6000602082019050612c226000830184612b01565b92915050565b6000606082019050612c3d6000830186612b01565b612c4a6020830185612b01565b612c576040830184612052565b949350505050565b7f596f752063616e6e6f7420776f726b20666f7220796f757273656c6600000000600082015250565b6000612c95601c836124c6565b9150612ca082612c5f565b602082019050919050565b60006020820190508181036000830152612cc481612c88565b9050919050565b7f5468697320667265656c616e63657220646f6573206e6f742065786973740000600082015250565b6000612d01601e836124c6565b9150612d0c82612ccb565b602082019050919050565b60006020820190508181036000830152612d3081612cf4565b9050919050565b7f596f7520617265206e6f7420726567697374657265642061732061206672656560008201527f6c616e6365720000000000000000000000000000000000000000000000000000602082015250565b6000612d936026836124c6565b9150612d9e82612d37565b604082019050919050565b60006020820190508181036000830152612dc281612d86565b9050919050565b7f596f7520617265206e6f742074686520667265656c616e63657220666f72207460008201527f6869732070726f6a656374000000000000000000000000000000000000000000602082015250565b6000612e25602b836124c6565b9150612e3082612dc9565b604082019050919050565b60006020820190508181036000830152612e5481612e18565b905091905056fea264697066735822122072e28db0783a7061a81c1911826f1570f0863cd7b5dfdd401a2be2b0279ad34064736f6c63430008090033",
  "linkReferences": {},
  "deployedLinkReferences": {}
}